{
	"abi": [
		{
			"type": "constructor",
			"inputs": [],
			"stateMutability": "nonpayable"
		},
		{
			"type": "function",
			"name": "activeValidatorsCount",
			"inputs": [],
			"outputs": [
				{
					"name": "",
					"type": "uint256",
					"internalType": "uint256"
				}
			],
			"stateMutability": "view"
		},
		{
			"type": "function",
			"name": "calculateTopValidators",
			"inputs": [
				{
					"name": "n",
					"type": "uint8",
					"internalType": "uint8"
				}
			],
			"outputs": [],
			"stateMutability": "nonpayable"
		},
		{
			"type": "function",
			"name": "getTopValidators",
			"inputs": [],
			"outputs": [
				{
					"name": "",
					"type": "tuple[]",
					"internalType": "struct Validator[]",
					"components": [
						{
							"name": "addr",
							"type": "address",
							"internalType": "address"
						},
						{
							"name": "data",
							"type": "tuple",
							"internalType": "struct ValidatorData",
							"components": [
								{
									"name": "votersCount",
									"type": "uint256",
									"internalType": "uint256"
								},
								{
									"name": "voteBalance",
									"type": "uint256",
									"internalType": "uint256"
								},
								{
									"name": "isResigned",
									"type": "bool",
									"internalType": "bool"
								},
								{
									"name": "bls12_381_public_key",
									"type": "bytes",
									"internalType": "bytes"
								}
							]
						}
					]
				}
			],
			"stateMutability": "view"
		},
		{
			"type": "function",
			"name": "getValidator",
			"inputs": [
				{
					"name": "_addr",
					"type": "address",
					"internalType": "address"
				}
			],
			"outputs": [
				{
					"name": "",
					"type": "tuple",
					"internalType": "struct Validator",
					"components": [
						{
							"name": "addr",
							"type": "address",
							"internalType": "address"
						},
						{
							"name": "data",
							"type": "tuple",
							"internalType": "struct ValidatorData",
							"components": [
								{
									"name": "votersCount",
									"type": "uint256",
									"internalType": "uint256"
								},
								{
									"name": "voteBalance",
									"type": "uint256",
									"internalType": "uint256"
								},
								{
									"name": "isResigned",
									"type": "bool",
									"internalType": "bool"
								},
								{
									"name": "bls12_381_public_key",
									"type": "bytes",
									"internalType": "bytes"
								}
							]
						}
					]
				}
			],
			"stateMutability": "view"
		},
		{
			"type": "function",
			"name": "isValidatorRegistered",
			"inputs": [
				{
					"name": "addr",
					"type": "address",
					"internalType": "address"
				}
			],
			"outputs": [
				{
					"name": "",
					"type": "bool",
					"internalType": "bool"
				}
			],
			"stateMutability": "view"
		},
		{
			"type": "function",
			"name": "registerValidator",
			"inputs": [
				{
					"name": "bls12_381_public_key",
					"type": "bytes",
					"internalType": "bytes"
				}
			],
			"outputs": [],
			"stateMutability": "nonpayable"
		},
		{
			"type": "function",
			"name": "registeredValidatorsCount",
			"inputs": [],
			"outputs": [
				{
					"name": "",
					"type": "uint256",
					"internalType": "uint256"
				}
			],
			"stateMutability": "view"
		},
		{
			"type": "function",
			"name": "resignValidator",
			"inputs": [],
			"outputs": [],
			"stateMutability": "nonpayable"
		},
		{
			"type": "function",
			"name": "resignedValidatorsCount",
			"inputs": [],
			"outputs": [
				{
					"name": "",
					"type": "uint256",
					"internalType": "uint256"
				}
			],
			"stateMutability": "view"
		},
		{
			"type": "function",
			"name": "unvote",
			"inputs": [],
			"outputs": [],
			"stateMutability": "nonpayable"
		},
		{
			"type": "function",
			"name": "updateValidator",
			"inputs": [
				{
					"name": "_validator",
					"type": "tuple",
					"internalType": "struct Validator",
					"components": [
						{
							"name": "addr",
							"type": "address",
							"internalType": "address"
						},
						{
							"name": "data",
							"type": "tuple",
							"internalType": "struct ValidatorData",
							"components": [
								{
									"name": "votersCount",
									"type": "uint256",
									"internalType": "uint256"
								},
								{
									"name": "voteBalance",
									"type": "uint256",
									"internalType": "uint256"
								},
								{
									"name": "isResigned",
									"type": "bool",
									"internalType": "bool"
								},
								{
									"name": "bls12_381_public_key",
									"type": "bytes",
									"internalType": "bytes"
								}
							]
						}
					]
				}
			],
			"outputs": [],
			"stateMutability": "nonpayable"
		},
		{
			"type": "function",
			"name": "updateVoters",
			"inputs": [
				{
					"name": "voters",
					"type": "address[]",
					"internalType": "address[]"
				}
			],
			"outputs": [],
			"stateMutability": "nonpayable"
		},
		{
			"type": "function",
			"name": "vote",
			"inputs": [
				{
					"name": "addr",
					"type": "address",
					"internalType": "address"
				}
			],
			"outputs": [],
			"stateMutability": "nonpayable"
		},
		{
			"type": "event",
			"name": "Unvoted",
			"inputs": [
				{
					"name": "voter",
					"type": "address",
					"indexed": false,
					"internalType": "address"
				},
				{
					"name": "validator",
					"type": "address",
					"indexed": false,
					"internalType": "address"
				}
			],
			"anonymous": false
		},
		{
			"type": "event",
			"name": "ValidatorRegistered",
			"inputs": [
				{
					"name": "addr",
					"type": "address",
					"indexed": false,
					"internalType": "address"
				},
				{
					"name": "bls12_381_public_key",
					"type": "bytes",
					"indexed": false,
					"internalType": "bytes"
				}
			],
			"anonymous": false
		},
		{
			"type": "event",
			"name": "ValidatorResigned",
			"inputs": [
				{
					"name": "addr",
					"type": "address",
					"indexed": false,
					"internalType": "address"
				}
			],
			"anonymous": false
		},
		{
			"type": "event",
			"name": "Voted",
			"inputs": [
				{
					"name": "voter",
					"type": "address",
					"indexed": false,
					"internalType": "address"
				},
				{
					"name": "validator",
					"type": "address",
					"indexed": false,
					"internalType": "address"
				}
			],
			"anonymous": false
		}
	],
	"bytecode": {
		"object": "0x60a06040525f5f555f6001555f6009553480156019575f5ffd5b5033608052608051611fdd6100365f395f6104ae0152611fdd5ff3fe608060405234801561000f575f5ffd5b50600436106100cb575f3560e01c80636252587911610088578063b5cfa68c11610063578063b5cfa68c14610179578063b85f5da21461018c578063d04a68c714610194578063f1bd0b37146101cf575f5ffd5b8063625258791461013e5780636dd7d8ea14610151578063afeea11514610164575f5ffd5b80630777cbef146100cf5780630d2bd909146100e65780631904bb2e146100ee5780632bdf6d431461010e5780633174b68914610123578063602a9eee1461012b575b5f5ffd5b6001545b6040519081526020015b60405180910390f35b600a546100d3565b6101016100fc3660046119c7565b6101d6565b6040516100dd9190611a78565b61012161011c366004611a8a565b61033b565b005b610121610381565b610121610139366004611afb565b6104a4565b61012161014c366004611b59565b610770565b61012161015f3660046119c7565b61080b565b61016c610a03565b6040516100dd9190611b90565b610121610187366004611bf3565b610ba1565b610121610f7b565b6101bf6101a23660046119c7565b6001600160a01b03165f9081526003602052604090205460ff1690565b60405190151581526020016100dd565b5f546100d3565b6101de6118e9565b6001600160a01b0382165f9081526003602052604090205460ff1661024a5760405162461bcd60e51b815260206004820152601c60248201527f56616c696461746f724461746120646f65736e2774206578697374730000000060448201526064015b60405180910390fd5b6040805180820182526001600160a01b0384168082525f90815260026020818152918490208451608081018652815481526001820154818501529181015460ff161515948201949094526003840180549394928501939192916060840191906102b290611c13565b80601f01602080910402602001604051908101604052809291908181526020018280546102de90611c13565b80156103295780601f1061030057610100808354040283529160200191610329565b820191905f5260205f20905b81548152906001019060200180831161030c57829003601f168201915b50505091909252505050905292915050565b5f5b8181101561037c5761037483838381811061035a5761035a611c45565b905060200201602081019061036f91906119c7565b61109c565b60010161033d565b505050565b335f90815260066020526040902080546001600160a01b03166103d85760405162461bcd60e51b815260206004820152600f60248201526e1513d113ce881b9bdd081d9bdd1959608a1b6044820152606401610241565b8054604080513381526001600160a01b0390921660208301527f6572af8bf9a0a86efb88dcc30011626a15c9c4603503aa4466a3f87a1867deef910160405180910390a160018082015482546001600160a01b03165f90815260026020526040812090920180549192909161044e908490611c6d565b909155505080546001600160a01b03165f90815260026020526040812080546001929061047c908490611c6d565b9091555050335f90815260066020526040812080546001600160a01b03191681556001015550565b6001600160a01b037f000000000000000000000000000000000000000000000000000000000000000016330361050d5760405162461bcd60e51b815260206004820152600e60248201526d24b73b30b634b21031b0b63632b960911b6044820152606401610241565b335f9081526003602052604090205460ff161561056c5760405162461bcd60e51b815260206004820152601f60248201527f56616c696461746f7220697320616c72656164792072656769737465726564006044820152606401610241565b5f828260405161057d929190611c80565b60408051918290039091205f8181526004602052919091205490915060ff16156105f55760405162461bcd60e51b815260206004820152602360248201527f424c5331322d333831206b657920697320616c726561647920726567697374656044820152621c995960ea1b6064820152608401610241565b6105ff838361117c565b5f60405180608001604052805f81526020015f81526020015f1515815260200185858080601f0160208091040260200160405190810160405280939291908181526020018383808284375f920182905250939094525050805492935090508061066783611c8f565b9091555050335f9081526003602081815260408084208054600160ff1991821681179092556002808552958390208751815593870151918401919091559085015193820180549091169315159390931790925560608301518392918201906106cf9082611d06565b5050505f82815260046020526040808220805460ff191660019081179091556005805491820181559092527f036b6384b5eca791c62761152d0c79bb0604c104a5fb6f4eb0703f3154bb3db090910180546001600160a01b0319163390811790915590517f61809fa303a3a57f4d70552f533f3e0b003173d424590cd4bb22a2afe000990c916107629187908790611dc1565b60405180910390a150505050565b6107806101a260208301836119c7565b6107cc5760405162461bcd60e51b815260206004820152601c60248201527f56616c696461746f724461746120646f65736e277420657869737473000000006044820152606401610241565b6107d96020820182611e00565b60025f6107e960208501856119c7565b6001600160a01b0316815260208101919091526040015f2061037c8282611ed8565b6001600160a01b0381165f9081526003602052604090205460ff166108725760405162461bcd60e51b815260206004820152601760248201527f4d75737420766f746520666f722076616c696461746f720000000000000000006044820152606401610241565b335f908152600660205260409020546001600160a01b0316156108c75760405162461bcd60e51b815260206004820152600d60248201526c105b1c9958591e481d9bdd1959609a1b6044820152606401610241565b6001600160a01b0381165f9081526002602081905260409091209081015460ff16156109405760405162461bcd60e51b815260206004820152602260248201527f4d75737420766f746520666f7220756e72657369676e65642076616c6964617460448201526137b960f11b6064820152608401610241565b6040805180820182526001600160a01b03848116825233803160208085019182525f8381526006909152948520935184546001600160a01b03191693169290921783559051600192830155908301805491319290916109a0908490611f60565b9091555050805460019082905f906109b9908490611f60565b9091555050604080513381526001600160a01b03841660208201527fce0c7a2a940807f7dc2ce7a615c2532e915e6c0ac9a08bc4ed9d515a710a53e2910160405180910390a15050565b600a546060905f9067ffffffffffffffff811115610a2357610a23611ca7565b604051908082528060200260200182016040528015610a5c57816020015b610a496118e9565b815260200190600190039081610a415790505b5090505f5b600a54811015610b9b575f600a8281548110610a7f57610a7f611c45565b5f9182526020808320909101546001600160a01b03168083526002808352604093849020845180860186528381528551608081018752825481526001830154818701529282015460ff1615159583019590955260038101805493965090949384019285916060840191610af190611c13565b80601f0160208091040260200160405190810160405280929190818152602001828054610b1d90611c13565b8015610b685780601f10610b3f57610100808354040283529160200191610b68565b820191905f5260205f20905b815481529060010190602001808311610b4b57829003601f168201915b505050505081525050815250848481518110610b8657610b86611c45565b60209081029190910101525050600101610a61565b50919050565b610ba96111de565b610bb161132d565b600780546001600160a01b03191690556001545f80549091610be39160ff8516918491610bde9190611c6d565b61137e565b90508060ff165f03610bf3575050565b5f5b600554811015610e9e575f60058281548110610c1357610c13611c45565b5f9182526020808320909101546001600160a01b03168083526002918290526040909220908101549192509060ff1615610c4e575050610e96565b6007546001600160a01b0316610c895750600780546001600160a01b0319166001600160a01b03929092169190911790556001600955610e96565b8360ff166009541015610ca757610ca0828561140f565b5050610e96565b6007546001600160a01b039081165f908152600260208181526040928390208351808501855294871685528351608081018552865481526001870154818401529286015460ff161515938301939093526003850180549394610e8394909392840192918791606084019190610d1b90611c13565b80601f0160208091040260200160405190810160405280929190818152602001828054610d4790611c13565b8015610d925780601f10610d6957610100808354040283529160200191610d92565b820191905f5260205f20905b815481529060010190602001808311610d7557829003601f168201915b5050509190925250505090526040805180820182526007546001600160a01b031681528151608081018352855481526001860154602082810191909152600287015460ff16151593820193909352600386018054929384019287916060840191610dfb90611c13565b80601f0160208091040260200160405190810160405280929190818152602001828054610e2790611c13565b8015610e725780601f10610e4957610100808354040283529160200191610e72565b820191905f5260205f20905b815481529060010190602001808311610e5557829003601f168201915b5050505050815250508152506117ee565b15610e9257610e92838661140f565b5050505b600101610bf5565b506007546001600160a01b0316610eb6600a5f611932565b8160ff1667ffffffffffffffff811115610ed257610ed2611ca7565b604051908082528060200260200182016040528015610efb578160200160208202803683370190505b508051610f1091600a91602090910190611950565b505f5b8260ff16811015610f755781600a8281548110610f3257610f32611c45565b5f91825260208083209190910180546001600160a01b0319166001600160a01b039485161790559382168152600890935260409092205490911690600101610f13565b50505050565b335f9081526003602052604090205460ff16610fd95760405162461bcd60e51b815260206004820152601960248201527f43616c6c6572206973206e6f7420612076616c696461746f72000000000000006044820152606401610241565b335f9081526002602081905260409091209081015460ff161561103e5760405162461bcd60e51b815260206004820152601d60248201527f56616c696461746f7220697320616c72656164792072657369676e65640000006044820152606401610241565b60028101805460ff19166001908117909155805481905f90611061908390611f60565b90915550506040513381527f24250fc1ec78a1405ddd4cc8b75964858af228d05faa8d4bc1302966d8a541179060200160405180910390a150565b6001600160a01b038082165f90815260066020526040902080549091166110c1575050565b60018101546001600160a01b03831631811015611122576110ec816001600160a01b03851631611c6d565b82546001600160a01b03165f9081526002602052604081206001018054909190611117908490611f60565b909155506111679050565b6111366001600160a01b0384163182611c6d565b82546001600160a01b03165f9081526002602052604081206001018054909190611161908490611c6d565b90915550505b506001600160a01b0390911631600190910155565b603081146111da5760405162461bcd60e51b815260206004820152602560248201527f424c5331322d333831207075626c69634b6579206c656e67746820697320696e6044820152641d985b1a5960da1b6064820152608401610241565b5050565b6005545f6111ed600183611c6d565b90505b80156111da575f611202826001611f60565b60408051426020820152449181019190915260608101849052608001604051602081830303815290604052805190602001205f1c6112409190611f73565b90505f6005838154811061125657611256611c45565b5f91825260209091200154600580546001600160a01b039092169250908390811061128357611283611c45565b5f91825260209091200154600580546001600160a01b0390921691859081106112ae576112ae611c45565b905f5260205f20015f6101000a8154816001600160a01b0302191690836001600160a01b0316021790555080600583815481106112ed576112ed611c45565b905f5260205f20015f6101000a8154816001600160a01b0302191690836001600160a01b031602179055505050808061132590611f92565b9150506111f0565b6007546001600160a01b03165b6001600160a01b03811615611377576001600160a01b039081165f90815260086020526040902080546001600160a01b031981169091551661133a565b505f600955565b5f818311156113e75760405162461bcd60e51b815260206004820152602f60248201527f4d696e696d756d2073686f756c64206265206c657373207468616e206f72206560448201526e7175616c20746f206d6178696d756d60881b6064820152608401610241565b828410156113f6575081611408565b81841115611405575080611408565b50825b9392505050565b6001600160a01b0382165f9081526002602081815260408084208151608081018352815481526001820154938101939093529283015460ff1615159082015260038201805491929160608401919061146690611c13565b80601f016020809104026020016040519081016040528092919081815260200182805461149290611c13565b80156114dd5780601f106114b4576101008083540402835291602001916114dd565b820191905f5260205f20905b8154815290600101906020018083116114c057829003601f168201915b5050509190925250506040805180820182526007546001600160a01b03168082525f90815260026020818152918490208451608081018652815481526001820154818501529181015460ff161515948201949094526003840180549697506115fe969395509185019390929091606084019161155890611c13565b80601f016020809104026020016040519081016040528092919081815260200182805461158490611c13565b80156115cf5780601f106115a6576101008083540402835291602001916115cf565b820191905f5260205f20905b8154815290600101906020018083116115b257829003601f168201915b5050505050815250508152506040518060400160405280866001600160a01b03168152602001848152506117ee565b156116115761160c8361183a565b61178f565b6007546001600160a01b039081165f81815260086020526040902054909116905b6001600160a01b03821661164f5761164a818661188b565b61178c565b6040805180820182526001600160a01b0384168082525f90815260026020818152918490208451608081018652815481526001820154818501529181015460ff1615159482019490945260038401805461175c95938501939160608401916116b690611c13565b80601f01602080910402602001604051908101604052809291908181526020018280546116e290611c13565b801561172d5780601f106117045761010080835404028352916020019161172d565b820191905f5260205f20905b81548152906001019060200180831161171057829003601f168201915b5050505050815250508152506040518060400160405280886001600160a01b03168152602001868152506117ee565b1561176b5761164a818661188b565b506001600160a01b038082165f908152600860205260409020541690611632565b50505b8160ff16600954111561037c57600780546001600160a01b039081165f90815260086020526040812080546001600160a01b031980821690925584549316921682179092556009805491926117e383611f92565b919050555050505050565b5f8160200151602001518360200151602001510361181e5750805182516001600160a01b03918216911611611834565b8160200151602001518360200151602001511190505b92915050565b600780546001600160a01b038381165f8181526008602052604081208054939094166001600160a01b031993841617909355835490911617909155600980549161188383611c8f565b919050555050565b6001600160a01b038281165f8181526008602052604080822080548686168085529284208054919096166001600160a01b0319918216179095559282528254909316909217905560098054916118e083611c8f565b91905055505050565b60405180604001604052805f6001600160a01b0316815260200161192d60405180608001604052805f81526020015f81526020015f15158152602001606081525090565b905290565b5080545f8255905f5260205f209081019061194d91906119b3565b50565b828054828255905f5260205f209081019282156119a3579160200282015b828111156119a357825182546001600160a01b0319166001600160a01b0390911617825560209092019160019091019061196e565b506119af9291506119b3565b5090565b5b808211156119af575f81556001016119b4565b5f602082840312156119d7575f5ffd5b81356001600160a01b0381168114611408575f5ffd5b60018060a01b0381511682525f602082015160406020850152805160408501526020810151606085015260408101511515608085015260608101519050608060a085015280518060c08601525f5b81811015611a5857602081840181015160e0888401015201611a3b565b505f60e0828701015260e0601f19601f8301168601019250505092915050565b602081525f61140860208301846119ed565b5f5f60208385031215611a9b575f5ffd5b823567ffffffffffffffff811115611ab1575f5ffd5b8301601f81018513611ac1575f5ffd5b803567ffffffffffffffff811115611ad7575f5ffd5b8560208260051b8401011115611aeb575f5ffd5b6020919091019590945092505050565b5f5f60208385031215611b0c575f5ffd5b823567ffffffffffffffff811115611b22575f5ffd5b8301601f81018513611b32575f5ffd5b803567ffffffffffffffff811115611b48575f5ffd5b856020828401011115611aeb575f5ffd5b5f60208284031215611b69575f5ffd5b813567ffffffffffffffff811115611b7f575f5ffd5b820160408185031215611408575f5ffd5b5f602082016020835280845180835260408501915060408160051b8601019250602086015f5b82811015611be757603f19878603018452611bd28583516119ed565b94506020938401939190910190600101611bb6565b50929695505050505050565b5f60208284031215611c03575f5ffd5b813560ff81168114611408575f5ffd5b600181811c90821680611c2757607f821691505b602082108103610b9b57634e487b7160e01b5f52602260045260245ffd5b634e487b7160e01b5f52603260045260245ffd5b634e487b7160e01b5f52601160045260245ffd5b8181038181111561183457611834611c59565b818382375f9101908152919050565b5f60018201611ca057611ca0611c59565b5060010190565b634e487b7160e01b5f52604160045260245ffd5b601f82111561037c57805f5260205f20601f840160051c81016020851015611ce05750805b601f840160051c820191505b81811015611cff575f8155600101611cec565b5050505050565b815167ffffffffffffffff811115611d2057611d20611ca7565b611d3481611d2e8454611c13565b84611cbb565b6020601f821160018114611d66575f8315611d4f5750848201515b5f19600385901b1c1916600184901b178455611cff565b5f84815260208120601f198516915b82811015611d955787850151825560209485019460019092019101611d75565b5084821015611db257868401515f19600387901b60f8161c191681555b50505050600190811b01905550565b6001600160a01b03841681526040602082018190528101829052818360608301375f818301606090810191909152601f909201601f1916010192915050565b5f8235607e19833603018112611e14575f5ffd5b9190910192915050565b67ffffffffffffffff831115611e3657611e36611ca7565b611e4a83611e448354611c13565b83611cbb565b5f601f841160018114611e7b575f8515611e645750838201355b5f19600387901b1c1916600186901b178355611cff565b5f83815260208120601f198716915b82811015611eaa5786850135825560209485019460019092019101611e8a565b5086821015611ec6575f1960f88860031b161c19848701351681555b505060018560011b0183555050505050565b8135815560208201356001820155600281016040830135801515808214611efd575f5ffd5b60ff19835416915060ff8116821783555050506060820135601e19833603018112611f26575f5ffd5b8201803567ffffffffffffffff811115611f3e575f5ffd5b602082019150803603821315611f52575f5ffd5b610f75818360038601611e1e565b8082018082111561183457611834611c59565b5f82611f8d57634e487b7160e01b5f52601260045260245ffd5b500690565b5f81611fa057611fa0611c59565b505f19019056fea26469706673582212203932082cdc9b2c73cbbd07aaf2522d8693d5654607eaca1bee8edaaff9aeec7d64736f6c634300081b0033",
		"linkReferences": {}
	},
	"methodIdentifiers": {
		"activeValidatorsCount()": "0d2bd909",
		"calculateTopValidators(uint8)": "b5cfa68c",
		"getTopValidators()": "afeea115",
		"getValidator(address)": "1904bb2e",
		"isValidatorRegistered(address)": "d04a68c7",
		"registerValidator(bytes)": "602a9eee",
		"registeredValidatorsCount()": "f1bd0b37",
		"resignValidator()": "b85f5da2",
		"resignedValidatorsCount()": "0777cbef",
		"unvote()": "3174b689",
		"updateValidator((address,(uint256,uint256,bool,bytes)))": "62525879",
		"updateVoters(address[])": "2bdf6d43",
		"vote(address)": "6dd7d8ea"
	},
	"id": 23
}