{
	"abi": [
		{
			"type": "constructor",
			"inputs": [],
			"stateMutability": "nonpayable"
		},
		{
			"type": "function",
			"name": "activeValidatorsCount",
			"inputs": [],
			"outputs": [
				{
					"name": "",
					"type": "uint256",
					"internalType": "uint256"
				}
			],
			"stateMutability": "view"
		},
		{
			"type": "function",
			"name": "calculateTopValidators",
			"inputs": [
				{
					"name": "n",
					"type": "uint8",
					"internalType": "uint8"
				}
			],
			"outputs": [],
			"stateMutability": "nonpayable"
		},
		{
			"type": "function",
			"name": "getAllValidators",
			"inputs": [],
			"outputs": [
				{
					"name": "",
					"type": "tuple[]",
					"internalType": "struct Validator[]",
					"components": [
						{
							"name": "addr",
							"type": "address",
							"internalType": "address"
						},
						{
							"name": "data",
							"type": "tuple",
							"internalType": "struct ValidatorData",
							"components": [
								{
									"name": "votersCount",
									"type": "uint256",
									"internalType": "uint256"
								},
								{
									"name": "voteBalance",
									"type": "uint256",
									"internalType": "uint256"
								},
								{
									"name": "isResigned",
									"type": "bool",
									"internalType": "bool"
								},
								{
									"name": "bls12_381_public_key",
									"type": "bytes",
									"internalType": "bytes"
								}
							]
						}
					]
				}
			],
			"stateMutability": "view"
		},
		{
			"type": "function",
			"name": "getTopValidators",
			"inputs": [],
			"outputs": [
				{
					"name": "",
					"type": "tuple[]",
					"internalType": "struct Validator[]",
					"components": [
						{
							"name": "addr",
							"type": "address",
							"internalType": "address"
						},
						{
							"name": "data",
							"type": "tuple",
							"internalType": "struct ValidatorData",
							"components": [
								{
									"name": "votersCount",
									"type": "uint256",
									"internalType": "uint256"
								},
								{
									"name": "voteBalance",
									"type": "uint256",
									"internalType": "uint256"
								},
								{
									"name": "isResigned",
									"type": "bool",
									"internalType": "bool"
								},
								{
									"name": "bls12_381_public_key",
									"type": "bytes",
									"internalType": "bytes"
								}
							]
						}
					]
				}
			],
			"stateMutability": "view"
		},
		{
			"type": "function",
			"name": "getValidator",
			"inputs": [
				{
					"name": "_addr",
					"type": "address",
					"internalType": "address"
				}
			],
			"outputs": [
				{
					"name": "",
					"type": "tuple",
					"internalType": "struct Validator",
					"components": [
						{
							"name": "addr",
							"type": "address",
							"internalType": "address"
						},
						{
							"name": "data",
							"type": "tuple",
							"internalType": "struct ValidatorData",
							"components": [
								{
									"name": "votersCount",
									"type": "uint256",
									"internalType": "uint256"
								},
								{
									"name": "voteBalance",
									"type": "uint256",
									"internalType": "uint256"
								},
								{
									"name": "isResigned",
									"type": "bool",
									"internalType": "bool"
								},
								{
									"name": "bls12_381_public_key",
									"type": "bytes",
									"internalType": "bytes"
								}
							]
						}
					]
				}
			],
			"stateMutability": "view"
		},
		{
			"type": "function",
			"name": "isValidatorRegistered",
			"inputs": [
				{
					"name": "addr",
					"type": "address",
					"internalType": "address"
				}
			],
			"outputs": [
				{
					"name": "",
					"type": "bool",
					"internalType": "bool"
				}
			],
			"stateMutability": "view"
		},
		{
			"type": "function",
			"name": "registerValidator",
			"inputs": [
				{
					"name": "bls12_381_public_key",
					"type": "bytes",
					"internalType": "bytes"
				}
			],
			"outputs": [],
			"stateMutability": "nonpayable"
		},
		{
			"type": "function",
			"name": "registeredValidatorsCount",
			"inputs": [],
			"outputs": [
				{
					"name": "",
					"type": "uint256",
					"internalType": "uint256"
				}
			],
			"stateMutability": "view"
		},
		{
			"type": "function",
			"name": "resignValidator",
			"inputs": [],
			"outputs": [],
			"stateMutability": "nonpayable"
		},
		{
			"type": "function",
			"name": "resignedValidatorsCount",
			"inputs": [],
			"outputs": [
				{
					"name": "",
					"type": "uint256",
					"internalType": "uint256"
				}
			],
			"stateMutability": "view"
		},
		{
			"type": "function",
			"name": "unvote",
			"inputs": [],
			"outputs": [],
			"stateMutability": "nonpayable"
		},
		{
			"type": "function",
			"name": "updateValidator",
			"inputs": [
				{
					"name": "_validator",
					"type": "tuple",
					"internalType": "struct Validator",
					"components": [
						{
							"name": "addr",
							"type": "address",
							"internalType": "address"
						},
						{
							"name": "data",
							"type": "tuple",
							"internalType": "struct ValidatorData",
							"components": [
								{
									"name": "votersCount",
									"type": "uint256",
									"internalType": "uint256"
								},
								{
									"name": "voteBalance",
									"type": "uint256",
									"internalType": "uint256"
								},
								{
									"name": "isResigned",
									"type": "bool",
									"internalType": "bool"
								},
								{
									"name": "bls12_381_public_key",
									"type": "bytes",
									"internalType": "bytes"
								}
							]
						}
					]
				}
			],
			"outputs": [],
			"stateMutability": "nonpayable"
		},
		{
			"type": "function",
			"name": "updateVoters",
			"inputs": [
				{
					"name": "voters",
					"type": "address[]",
					"internalType": "address[]"
				}
			],
			"outputs": [],
			"stateMutability": "nonpayable"
		},
		{
			"type": "function",
			"name": "vote",
			"inputs": [
				{
					"name": "addr",
					"type": "address",
					"internalType": "address"
				}
			],
			"outputs": [],
			"stateMutability": "nonpayable"
		},
		{
			"type": "event",
			"name": "Unvoted",
			"inputs": [
				{
					"name": "voter",
					"type": "address",
					"indexed": false,
					"internalType": "address"
				},
				{
					"name": "validator",
					"type": "address",
					"indexed": false,
					"internalType": "address"
				}
			],
			"anonymous": false
		},
		{
			"type": "event",
			"name": "ValidatorRegistered",
			"inputs": [
				{
					"name": "addr",
					"type": "address",
					"indexed": false,
					"internalType": "address"
				},
				{
					"name": "bls12_381_public_key",
					"type": "bytes",
					"indexed": false,
					"internalType": "bytes"
				}
			],
			"anonymous": false
		},
		{
			"type": "event",
			"name": "ValidatorResigned",
			"inputs": [
				{
					"name": "addr",
					"type": "address",
					"indexed": false,
					"internalType": "address"
				}
			],
			"anonymous": false
		},
		{
			"type": "event",
			"name": "Voted",
			"inputs": [
				{
					"name": "voter",
					"type": "address",
					"indexed": false,
					"internalType": "address"
				},
				{
					"name": "validator",
					"type": "address",
					"indexed": false,
					"internalType": "address"
				}
			],
			"anonymous": false
		}
	],
	"bytecode": {
		"object": "0x60a06040525f5f555f6001555f6009553480156019575f5ffd5b503360805260805161230c61004b5f395f818161036801528181610548015281816108be0152610ccd015261230c5ff3fe608060405234801561000f575f5ffd5b50600436106100e5575f3560e01c80636dd7d8ea11610088578063b85f5da211610063578063b85f5da2146101a6578063d04a68c7146101ae578063f1bd0b37146101e9578063f3513a37146101f0575f5ffd5b80636dd7d8ea1461016b578063afeea1151461017e578063b5cfa68c14610193575f5ffd5b80632bdf6d43116100c35780632bdf6d43146101285780633174b6891461013d578063602a9eee146101455780636252587914610158575f5ffd5b80630777cbef146100e95780630d2bd909146101005780631904bb2e14610108575b5f5ffd5b6001545b6040519081526020015b60405180910390f35b600a546100ed565b61011b610116366004611cf6565b6101f8565b6040516100f79190611da7565b61013b610136366004611db9565b61035d565b005b61013b61041b565b61013b610153366004611e2a565b61053e565b61013b610166366004611e88565b610819565b61013b610179366004611cf6565b6108b4565b610186610b24565b6040516100f79190611ebf565b61013b6101a1366004611f22565b610cc2565b61013b611115565b6101d96101bc366004611cf6565b6001600160a01b03165f9081526003602052604090205460ff1690565b60405190151581526020016100f7565b5f546100ed565b610186611236565b610200611c1b565b6001600160a01b0382165f9081526003602052604090205460ff1661026c5760405162461bcd60e51b815260206004820152601c60248201527f56616c696461746f724461746120646f65736e2774206578697374730000000060448201526064015b60405180910390fd5b6040805180820182526001600160a01b0384168082525f90815260026020818152918490208451608081018652815481526001820154818501529181015460ff161515948201949094526003840180549394928501939192916060840191906102d490611f42565b80601f016020809104026020016040519081016040528092919081815260200182805461030090611f42565b801561034b5780601f106103225761010080835404028352916020019161034b565b820191905f5260205f20905b81548152906001019060200180831161032e57829003601f168201915b50505091909252505050905292915050565b336001600160a01b037f000000000000000000000000000000000000000000000000000000000000000016146103d55760405162461bcd60e51b815260206004820181905260248201527f43616c6c6572206973206e6f742074686520636f6e7472616374206f776e65726044820152606401610263565b5f5b818110156104165761040e8383838181106103f4576103f4611f74565b90506020020160208101906104099190611cf6565b6113ce565b6001016103d7565b505050565b335f90815260066020526040902080546001600160a01b03166104725760405162461bcd60e51b815260206004820152600f60248201526e1513d113ce881b9bdd081d9bdd1959608a1b6044820152606401610263565b8054604080513381526001600160a01b0390921660208301527f6572af8bf9a0a86efb88dcc30011626a15c9c4603503aa4466a3f87a1867deef910160405180910390a160018082015482546001600160a01b03165f9081526002602052604081209092018054919290916104e8908490611f9c565b909155505080546001600160a01b03165f908152600260205260408120805460019290610516908490611f9c565b9091555050335f90815260066020526040812080546001600160a01b03191681556001015550565b6001600160a01b037f00000000000000000000000000000000000000000000000000000000000000001633036105b65760405162461bcd60e51b815260206004820152601c60248201527f43616c6c65722069732074686520636f6e7472616374206f776e6572000000006044820152606401610263565b335f9081526003602052604090205460ff16156106155760405162461bcd60e51b815260206004820152601f60248201527f56616c696461746f7220697320616c72656164792072656769737465726564006044820152606401610263565b5f8282604051610626929190611faf565b60408051918290039091205f8181526004602052919091205490915060ff161561069e5760405162461bcd60e51b815260206004820152602360248201527f424c5331322d333831206b657920697320616c726561647920726567697374656044820152621c995960ea1b6064820152608401610263565b6106a883836114ae565b5f60405180608001604052805f81526020015f81526020015f1515815260200185858080601f0160208091040260200160405190810160405280939291908181526020018383808284375f920182905250939094525050805492935090508061071083611fbe565b9091555050335f9081526003602081815260408084208054600160ff1991821681179092556002808552958390208751815593870151918401919091559085015193820180549091169315159390931790925560608301518392918201906107789082612035565b5050505f82815260046020526040808220805460ff191660019081179091556005805491820181559092527f036b6384b5eca791c62761152d0c79bb0604c104a5fb6f4eb0703f3154bb3db090910180546001600160a01b0319163390811790915590517f61809fa303a3a57f4d70552f533f3e0b003173d424590cd4bb22a2afe000990c9161080b91879087906120f0565b60405180910390a150505050565b6108296101bc6020830183611cf6565b6108755760405162461bcd60e51b815260206004820152601c60248201527f56616c696461746f724461746120646f65736e277420657869737473000000006044820152606401610263565b610882602082018261212f565b60025f6108926020850185611cf6565b6001600160a01b0316815260208101919091526040015f206104168282612207565b6001600160a01b037f000000000000000000000000000000000000000000000000000000000000000016330361092c5760405162461bcd60e51b815260206004820152601c60248201527f43616c6c65722069732074686520636f6e7472616374206f776e6572000000006044820152606401610263565b6001600160a01b0381165f9081526003602052604090205460ff166109935760405162461bcd60e51b815260206004820152601760248201527f4d75737420766f746520666f722076616c696461746f720000000000000000006044820152606401610263565b335f908152600660205260409020546001600160a01b0316156109e85760405162461bcd60e51b815260206004820152600d60248201526c105b1c9958591e481d9bdd1959609a1b6044820152606401610263565b6001600160a01b0381165f9081526002602081905260409091209081015460ff1615610a615760405162461bcd60e51b815260206004820152602260248201527f4d75737420766f746520666f7220756e72657369676e65642076616c6964617460448201526137b960f11b6064820152608401610263565b6040805180820182526001600160a01b03848116825233803160208085019182525f8381526006909152948520935184546001600160a01b0319169316929092178355905160019283015590830180549131929091610ac190849061228f565b9091555050805460019082905f90610ada90849061228f565b9091555050604080513381526001600160a01b03841660208201527fce0c7a2a940807f7dc2ce7a615c2532e915e6c0ac9a08bc4ed9d515a710a53e2910160405180910390a15050565b600a546060905f9067ffffffffffffffff811115610b4457610b44611fd6565b604051908082528060200260200182016040528015610b7d57816020015b610b6a611c1b565b815260200190600190039081610b625790505b5090505f5b600a54811015610cbc575f600a8281548110610ba057610ba0611f74565b5f9182526020808320909101546001600160a01b03168083526002808352604093849020845180860186528381528551608081018752825481526001830154818701529282015460ff1615159583019590955260038101805493965090949384019285916060840191610c1290611f42565b80601f0160208091040260200160405190810160405280929190818152602001828054610c3e90611f42565b8015610c895780601f10610c6057610100808354040283529160200191610c89565b820191905f5260205f20905b815481529060010190602001808311610c6c57829003601f168201915b505050505081525050815250848481518110610ca757610ca7611f74565b60209081029190910101525050600101610b82565b50919050565b336001600160a01b037f00000000000000000000000000000000000000000000000000000000000000001614610d3a5760405162461bcd60e51b815260206004820181905260248201527f43616c6c6572206973206e6f742074686520636f6e7472616374206f776e65726044820152606401610263565b610d42611510565b610d4a61165f565b600780546001600160a01b03191690556001545f80549091610d7c9160ff8516918491610d779190611f9c565b6116b0565b90508060ff165f03610d8c575050565b5f5b600554811015611037575f60058281548110610dac57610dac611f74565b5f9182526020808320909101546001600160a01b03168083526002918290526040909220908101549192509060ff1615610de757505061102f565b6007546001600160a01b0316610e225750600780546001600160a01b0319166001600160a01b0392909216919091179055600160095561102f565b8360ff166009541015610e4057610e398285611741565b505061102f565b6007546001600160a01b039081165f908152600260208181526040928390208351808501855294871685528351608081018552865481526001870154818401529286015460ff16151593830193909352600385018054939461101c94909392840192918791606084019190610eb490611f42565b80601f0160208091040260200160405190810160405280929190818152602001828054610ee090611f42565b8015610f2b5780601f10610f0257610100808354040283529160200191610f2b565b820191905f5260205f20905b815481529060010190602001808311610f0e57829003601f168201915b5050509190925250505090526040805180820182526007546001600160a01b031681528151608081018352855481526001860154602082810191909152600287015460ff16151593820193909352600386018054929384019287916060840191610f9490611f42565b80601f0160208091040260200160405190810160405280929190818152602001828054610fc090611f42565b801561100b5780601f10610fe25761010080835404028352916020019161100b565b820191905f5260205f20905b815481529060010190602001808311610fee57829003601f168201915b505050505081525050815250611b20565b1561102b5761102b8386611741565b5050505b600101610d8e565b506007546001600160a01b031661104f600a5f611c64565b8160ff1667ffffffffffffffff81111561106b5761106b611fd6565b604051908082528060200260200182016040528015611094578160200160208202803683370190505b5080516110a991600a91602090910190611c7f565b505f5b8260ff1681101561110e5781600a82815481106110cb576110cb611f74565b5f91825260208083209190910180546001600160a01b0319166001600160a01b0394851617905593821681526008909352604090922054909116906001016110ac565b5050505b50565b335f9081526003602052604090205460ff166111735760405162461bcd60e51b815260206004820152601960248201527f43616c6c6572206973206e6f7420612076616c696461746f72000000000000006044820152606401610263565b335f9081526002602081905260409091209081015460ff16156111d85760405162461bcd60e51b815260206004820152601d60248201527f56616c696461746f7220697320616c72656164792072657369676e65640000006044820152606401610263565b60028101805460ff19166001908117909155805481905f906111fb90839061228f565b90915550506040513381527f24250fc1ec78a1405ddd4cc8b75964858af228d05faa8d4bc1302966d8a541179060200160405180910390a150565b6005546060905f9067ffffffffffffffff81111561125657611256611fd6565b60405190808252806020026020018201604052801561128f57816020015b61127c611c1b565b8152602001906001900390816112745790505b5090505f5b600554811015610cbc575f600582815481106112b2576112b2611f74565b5f9182526020808320909101546001600160a01b03168083526002808352604093849020845180860186528381528551608081018752825481526001830154818701529282015460ff161515958301959095526003810180549396509094938401928591606084019161132490611f42565b80601f016020809104026020016040519081016040528092919081815260200182805461135090611f42565b801561139b5780601f106113725761010080835404028352916020019161139b565b820191905f5260205f20905b81548152906001019060200180831161137e57829003601f168201915b5050505050815250508152508484815181106113b9576113b9611f74565b60209081029190910101525050600101611294565b6001600160a01b038082165f90815260066020526040902080549091166113f3575050565b60018101546001600160a01b038316318110156114545761141e816001600160a01b03851631611f9c565b82546001600160a01b03165f908152600260205260408120600101805490919061144990849061228f565b909155506114999050565b6114686001600160a01b0384163182611f9c565b82546001600160a01b03165f9081526002602052604081206001018054909190611493908490611f9c565b90915550505b506001600160a01b0390911631600190910155565b6030811461150c5760405162461bcd60e51b815260206004820152602560248201527f424c5331322d333831207075626c69634b6579206c656e67746820697320696e6044820152641d985b1a5960da1b6064820152608401610263565b5050565b6005545f61151f600183611f9c565b90505b801561150c575f61153482600161228f565b60408051426020820152449181019190915260608101849052608001604051602081830303815290604052805190602001205f1c61157291906122a2565b90505f6005838154811061158857611588611f74565b5f91825260209091200154600580546001600160a01b03909216925090839081106115b5576115b5611f74565b5f91825260209091200154600580546001600160a01b0390921691859081106115e0576115e0611f74565b905f5260205f20015f6101000a8154816001600160a01b0302191690836001600160a01b03160217905550806005838154811061161f5761161f611f74565b905f5260205f20015f6101000a8154816001600160a01b0302191690836001600160a01b0316021790555050508080611657906122c1565b915050611522565b6007546001600160a01b03165b6001600160a01b038116156116a9576001600160a01b039081165f90815260086020526040902080546001600160a01b031981169091551661166c565b505f600955565b5f818311156117195760405162461bcd60e51b815260206004820152602f60248201527f4d696e696d756d2073686f756c64206265206c657373207468616e206f72206560448201526e7175616c20746f206d6178696d756d60881b6064820152608401610263565b8284101561172857508161173a565b8184111561173757508061173a565b50825b9392505050565b6001600160a01b0382165f9081526002602081815260408084208151608081018352815481526001820154938101939093529283015460ff1615159082015260038201805491929160608401919061179890611f42565b80601f01602080910402602001604051908101604052809291908181526020018280546117c490611f42565b801561180f5780601f106117e65761010080835404028352916020019161180f565b820191905f5260205f20905b8154815290600101906020018083116117f257829003601f168201915b5050509190925250506040805180820182526007546001600160a01b03168082525f90815260026020818152918490208451608081018652815481526001820154818501529181015460ff16151594820194909452600384018054969750611930969395509185019390929091606084019161188a90611f42565b80601f01602080910402602001604051908101604052809291908181526020018280546118b690611f42565b80156119015780601f106118d857610100808354040283529160200191611901565b820191905f5260205f20905b8154815290600101906020018083116118e457829003601f168201915b5050505050815250508152506040518060400160405280866001600160a01b0316815260200184815250611b20565b156119435761193e83611b6c565b611ac1565b6007546001600160a01b039081165f81815260086020526040902054909116905b6001600160a01b0382166119815761197c8186611bbd565b611abe565b6040805180820182526001600160a01b0384168082525f90815260026020818152918490208451608081018652815481526001820154818501529181015460ff16151594820194909452600384018054611a8e95938501939160608401916119e890611f42565b80601f0160208091040260200160405190810160405280929190818152602001828054611a1490611f42565b8015611a5f5780601f10611a3657610100808354040283529160200191611a5f565b820191905f5260205f20905b815481529060010190602001808311611a4257829003601f168201915b5050505050815250508152506040518060400160405280886001600160a01b0316815260200186815250611b20565b15611a9d5761197c8186611bbd565b506001600160a01b038082165f908152600860205260409020541690611964565b50505b8160ff16600954111561041657600780546001600160a01b039081165f90815260086020526040812080546001600160a01b03198082169092558454931692168217909255600980549192611b15836122c1565b919050555050505050565b5f81602001516020015183602001516020015103611b505750805182516001600160a01b03918216911611611b66565b8160200151602001518360200151602001511190505b92915050565b600780546001600160a01b038381165f8181526008602052604081208054939094166001600160a01b0319938416179093558354909116179091556009805491611bb583611fbe565b919050555050565b6001600160a01b038281165f8181526008602052604080822080548686168085529284208054919096166001600160a01b031991821617909555928252825490931690921790556009805491611c1283611fbe565b91905055505050565b60405180604001604052805f6001600160a01b03168152602001611c5f60405180608001604052805f81526020015f81526020015f15158152602001606081525090565b905290565b5080545f8255905f5260205f20908101906111129190611ce2565b828054828255905f5260205f20908101928215611cd2579160200282015b82811115611cd257825182546001600160a01b0319166001600160a01b03909116178255602090920191600190910190611c9d565b50611cde929150611ce2565b5090565b5b80821115611cde575f8155600101611ce3565b5f60208284031215611d06575f5ffd5b81356001600160a01b038116811461173a575f5ffd5b60018060a01b0381511682525f602082015160406020850152805160408501526020810151606085015260408101511515608085015260608101519050608060a085015280518060c08601525f5b81811015611d8757602081840181015160e0888401015201611d6a565b505f60e0828701015260e0601f19601f8301168601019250505092915050565b602081525f61173a6020830184611d1c565b5f5f60208385031215611dca575f5ffd5b823567ffffffffffffffff811115611de0575f5ffd5b8301601f81018513611df0575f5ffd5b803567ffffffffffffffff811115611e06575f5ffd5b8560208260051b8401011115611e1a575f5ffd5b6020919091019590945092505050565b5f5f60208385031215611e3b575f5ffd5b823567ffffffffffffffff811115611e51575f5ffd5b8301601f81018513611e61575f5ffd5b803567ffffffffffffffff811115611e77575f5ffd5b856020828401011115611e1a575f5ffd5b5f60208284031215611e98575f5ffd5b813567ffffffffffffffff811115611eae575f5ffd5b82016040818503121561173a575f5ffd5b5f602082016020835280845180835260408501915060408160051b8601019250602086015f5b82811015611f1657603f19878603018452611f01858351611d1c565b94506020938401939190910190600101611ee5565b50929695505050505050565b5f60208284031215611f32575f5ffd5b813560ff8116811461173a575f5ffd5b600181811c90821680611f5657607f821691505b602082108103610cbc57634e487b7160e01b5f52602260045260245ffd5b634e487b7160e01b5f52603260045260245ffd5b634e487b7160e01b5f52601160045260245ffd5b81810381811115611b6657611b66611f88565b818382375f9101908152919050565b5f60018201611fcf57611fcf611f88565b5060010190565b634e487b7160e01b5f52604160045260245ffd5b601f82111561041657805f5260205f20601f840160051c8101602085101561200f5750805b601f840160051c820191505b8181101561202e575f815560010161201b565b5050505050565b815167ffffffffffffffff81111561204f5761204f611fd6565b6120638161205d8454611f42565b84611fea565b6020601f821160018114612095575f831561207e5750848201515b5f19600385901b1c1916600184901b17845561202e565b5f84815260208120601f198516915b828110156120c457878501518255602094850194600190920191016120a4565b50848210156120e157868401515f19600387901b60f8161c191681555b50505050600190811b01905550565b6001600160a01b03841681526040602082018190528101829052818360608301375f818301606090810191909152601f909201601f1916010192915050565b5f8235607e19833603018112612143575f5ffd5b9190910192915050565b67ffffffffffffffff83111561216557612165611fd6565b612179836121738354611f42565b83611fea565b5f601f8411600181146121aa575f85156121935750838201355b5f19600387901b1c1916600186901b17835561202e565b5f83815260208120601f198716915b828110156121d957868501358255602094850194600190920191016121b9565b50868210156121f5575f1960f88860031b161c19848701351681555b505060018560011b0183555050505050565b813581556020820135600182015560028101604083013580151580821461222c575f5ffd5b60ff19835416915060ff8116821783555050506060820135601e19833603018112612255575f5ffd5b8201803567ffffffffffffffff81111561226d575f5ffd5b602082019150803603821315612281575f5ffd5b61110e81836003860161214d565b80820180821115611b6657611b66611f88565b5f826122bc57634e487b7160e01b5f52601260045260245ffd5b500690565b5f816122cf576122cf611f88565b505f19019056fea2646970667358221220fb596a899783aa169bc4bac8389b7b024606b59ed939dfa3029105b691e2bc1964736f6c634300081b0033",
		"linkReferences": {}
	},
	"methodIdentifiers": {
		"activeValidatorsCount()": "0d2bd909",
		"calculateTopValidators(uint8)": "b5cfa68c",
		"getAllValidators()": "f3513a37",
		"getTopValidators()": "afeea115",
		"getValidator(address)": "1904bb2e",
		"isValidatorRegistered(address)": "d04a68c7",
		"registerValidator(bytes)": "602a9eee",
		"registeredValidatorsCount()": "f1bd0b37",
		"resignValidator()": "b85f5da2",
		"resignedValidatorsCount()": "0777cbef",
		"unvote()": "3174b689",
		"updateValidator((address,(uint256,uint256,bool,bytes)))": "62525879",
		"updateVoters(address[])": "2bdf6d43",
		"vote(address)": "6dd7d8ea"
	},
	"id": 23
}