{
	"abi": [
		{
			"type": "constructor",
			"inputs": [],
			"stateMutability": "nonpayable"
		},
		{
			"type": "function",
			"name": "activeValidatorsCount",
			"inputs": [],
			"outputs": [
				{
					"name": "",
					"type": "uint256",
					"internalType": "uint256"
				}
			],
			"stateMutability": "view"
		},
		{
			"type": "function",
			"name": "calculateTopValidators",
			"inputs": [
				{
					"name": "n",
					"type": "uint8",
					"internalType": "uint8"
				}
			],
			"outputs": [],
			"stateMutability": "nonpayable"
		},
		{
			"type": "function",
			"name": "deregisterValidator",
			"inputs": [],
			"outputs": [],
			"stateMutability": "nonpayable"
		},
		{
			"type": "function",
			"name": "getTopValidators",
			"inputs": [],
			"outputs": [
				{
					"name": "",
					"type": "tuple[]",
					"internalType": "struct Validator[]",
					"components": [
						{
							"name": "addr",
							"type": "address",
							"internalType": "address"
						},
						{
							"name": "data",
							"type": "tuple",
							"internalType": "struct ValidatorData",
							"components": [
								{
									"name": "votersCount",
									"type": "uint256",
									"internalType": "uint256"
								},
								{
									"name": "voteBalance",
									"type": "uint256",
									"internalType": "uint256"
								},
								{
									"name": "isResigned",
									"type": "bool",
									"internalType": "bool"
								},
								{
									"name": "bls12_381_public_key",
									"type": "bytes",
									"internalType": "bytes"
								}
							]
						}
					]
				}
			],
			"stateMutability": "view"
		},
		{
			"type": "function",
			"name": "getValidator",
			"inputs": [
				{
					"name": "_addr",
					"type": "address",
					"internalType": "address"
				}
			],
			"outputs": [
				{
					"name": "",
					"type": "tuple",
					"internalType": "struct Validator",
					"components": [
						{
							"name": "addr",
							"type": "address",
							"internalType": "address"
						},
						{
							"name": "data",
							"type": "tuple",
							"internalType": "struct ValidatorData",
							"components": [
								{
									"name": "votersCount",
									"type": "uint256",
									"internalType": "uint256"
								},
								{
									"name": "voteBalance",
									"type": "uint256",
									"internalType": "uint256"
								},
								{
									"name": "isResigned",
									"type": "bool",
									"internalType": "bool"
								},
								{
									"name": "bls12_381_public_key",
									"type": "bytes",
									"internalType": "bytes"
								}
							]
						}
					]
				}
			],
			"stateMutability": "view"
		},
		{
			"type": "function",
			"name": "isValidatorRegistered",
			"inputs": [
				{
					"name": "addr",
					"type": "address",
					"internalType": "address"
				}
			],
			"outputs": [
				{
					"name": "",
					"type": "bool",
					"internalType": "bool"
				}
			],
			"stateMutability": "view"
		},
		{
			"type": "function",
			"name": "performValidatorResignations",
			"inputs": [],
			"outputs": [],
			"stateMutability": "nonpayable"
		},
		{
			"type": "function",
			"name": "registerValidator",
			"inputs": [
				{
					"name": "bls12_381_public_key",
					"type": "bytes",
					"internalType": "bytes"
				}
			],
			"outputs": [],
			"stateMutability": "nonpayable"
		},
		{
			"type": "function",
			"name": "registeredValidatorsCount",
			"inputs": [],
			"outputs": [
				{
					"name": "",
					"type": "uint256",
					"internalType": "uint256"
				}
			],
			"stateMutability": "view"
		},
		{
			"type": "function",
			"name": "unvote",
			"inputs": [],
			"outputs": [],
			"stateMutability": "nonpayable"
		},
		{
			"type": "function",
			"name": "updateValidator",
			"inputs": [
				{
					"name": "_validator",
					"type": "tuple",
					"internalType": "struct Validator",
					"components": [
						{
							"name": "addr",
							"type": "address",
							"internalType": "address"
						},
						{
							"name": "data",
							"type": "tuple",
							"internalType": "struct ValidatorData",
							"components": [
								{
									"name": "votersCount",
									"type": "uint256",
									"internalType": "uint256"
								},
								{
									"name": "voteBalance",
									"type": "uint256",
									"internalType": "uint256"
								},
								{
									"name": "isResigned",
									"type": "bool",
									"internalType": "bool"
								},
								{
									"name": "bls12_381_public_key",
									"type": "bytes",
									"internalType": "bytes"
								}
							]
						}
					]
				}
			],
			"outputs": [],
			"stateMutability": "nonpayable"
		},
		{
			"type": "function",
			"name": "updateVoters",
			"inputs": [
				{
					"name": "voters",
					"type": "address[]",
					"internalType": "address[]"
				}
			],
			"outputs": [],
			"stateMutability": "nonpayable"
		},
		{
			"type": "function",
			"name": "vote",
			"inputs": [
				{
					"name": "addr",
					"type": "address",
					"internalType": "address"
				}
			],
			"outputs": [],
			"stateMutability": "nonpayable"
		},
		{
			"type": "event",
			"name": "Unvoted",
			"inputs": [
				{
					"name": "voter",
					"type": "address",
					"indexed": false,
					"internalType": "address"
				},
				{
					"name": "validator",
					"type": "address",
					"indexed": false,
					"internalType": "address"
				}
			],
			"anonymous": false
		},
		{
			"type": "event",
			"name": "Voted",
			"inputs": [
				{
					"name": "voter",
					"type": "address",
					"indexed": false,
					"internalType": "address"
				},
				{
					"name": "validator",
					"type": "address",
					"indexed": false,
					"internalType": "address"
				}
			],
			"anonymous": false
		}
	],
	"bytecode": {
		"object": "0x60a06040525f5f555f6008553480156015575f5ffd5b50336080526080516123a96100325f395f61088801526123a95ff3fe608060405234801561000f575f5ffd5b50600436106100cb575f3560e01c80636252587911610088578063afeea11511610063578063afeea1151461016c578063b5cfa68c14610181578063d04a68c714610194578063f1bd0b37146101cf575f5ffd5b8063625258791461013e5780636a911ccf146101515780636dd7d8ea14610159575f5ffd5b80630d2bd909146100cf5780630f062c64146100e65780631904bb2e146100f05780632bdf6d43146101105780633174b68914610123578063602a9eee1461012b575b5f5ffd5b6009545b6040519081526020015b60405180910390f35b6100ee6101d6565b005b6101036100fe366004611d4d565b6105b3565b6040516100dd9190611dfe565b6100ee61011e366004611e10565b610713565b6100ee610759565b6100ee610139366004611e81565b61087e565b6100ee61014c366004611edf565b610b12565b6100ee610bad565b6100ee610167366004611d4d565b610cb7565b610174610ead565b6040516100dd9190611f16565b6100ee61018f366004611f79565b61104b565b6101bf6101a2366004611d4d565b6001600160a01b03165f9081526002602052604090205460ff1690565b60405190151581526020016100dd565b5f546100d3565b600a545f9067ffffffffffffffff8111156101f3576101f3611f99565b60405190808252806020026020018201604052801561021c578160200160208202803683370190505b5090505f5b600a548110156103e9575f600a828154811061023f5761023f611fad565b5f9182526020808320909101546001600160a01b03168083526001909152604090912060028101549192509060ff166102bf5760405162461bcd60e51b815260206004820152601960248201527f56616c696461746f72206973206e6f742072657369676e65640000000000000060448201526064015b60405180910390fd5b5f816003016040516102d19190611ff3565b6040519081900390205f8054919250806102ea83612078565b90915550506001600160a01b0383165f908152600260208181526040808420805460ff1990811690915560019283905290842084815591820184905591810180549092169091559061033f6003830182611c3b565b50505f818152600360205260408120805460ff191690555b6004546103669060019061208d565b8510156103d957836001600160a01b03166004828154811061038a5761038a611fad565b5f918252602090912001546001600160a01b0316036103c757808686815181106103b6576103b6611fad565b6020026020010181815250506103d9565b806103d1816120a0565b915050610357565b5050600190920191506102219050565b505f5b81518110156104c7575f6104018260016120b8565b90505b82518110156104be5782818151811061041f5761041f611fad565b602002602001015183838151811061043957610439611fad565b602002602001015110156104b65782818151811061045957610459611fad565b602002602001015183838151811061047357610473611fad565b602002602001015184848151811061048d5761048d611fad565b602002602001018584815181106104a6576104a6611fad565b6020908102919091010191909152525b600101610404565b506001016103ec565b505f5b81518110156105a4575f8282815181106104e6576104e6611fad565b6020026020010151905060046001600480549050610504919061208d565b8154811061051457610514611fad565b5f91825260209091200154600480546001600160a01b03909216918390811061053f5761053f611fad565b905f5260205f20015f6101000a8154816001600160a01b0302191690836001600160a01b03160217905550600480548061057b5761057b6120cb565b5f8281526020902081015f1990810180546001600160a01b0319169055019055506001016104ca565b506105b0600a5f611c72565b50565b6105bb611c8d565b6001600160a01b0382165f9081526002602052604090205460ff166106225760405162461bcd60e51b815260206004820152601c60248201527f56616c696461746f724461746120646f65736e2774206578697374730000000060448201526064016102b6565b6040805180820182526001600160a01b0384168082525f90815260016020818152918490208451608081018652815481529181015482840152600281015460ff1615159482019490945260038401805493949285019391929160608401919061068a90611fc1565b80601f01602080910402602001604051908101604052809291908181526020018280546106b690611fc1565b80156107015780601f106106d857610100808354040283529160200191610701565b820191905f5260205f20905b8154815290600101906020018083116106e457829003601f168201915b50505091909252505050905292915050565b5f5b818110156107545761074c83838381811061073257610732611fad565b90506020020160208101906107479190611d4d565b6113f1565b600101610715565b505050565b335f90815260056020526040902080546001600160a01b03166107b05760405162461bcd60e51b815260206004820152600f60248201526e1513d113ce881b9bdd081d9bdd1959608a1b60448201526064016102b6565b8054604080513381526001600160a01b0390921660208301527f6572af8bf9a0a86efb88dcc30011626a15c9c4603503aa4466a3f87a1867deef910160405180910390a160018082015482546001600160a01b03165f90815260208390526040812090920180549192909161082690849061208d565b909155505080546001600160a01b03165f908152600160208190526040822080549192909161085690849061208d565b9091555050335f90815260056020526040812080546001600160a01b03191681556001015550565b6001600160a01b037f00000000000000000000000000000000000000000000000000000000000000001633036108e75760405162461bcd60e51b815260206004820152600e60248201526d24b73b30b634b21031b0b63632b960911b60448201526064016102b6565b335f9081526002602052604090205460ff16156109525760405162461bcd60e51b815260206004820152602360248201527f56616c696461746f724461746120697320616c726561647920726567697374656044820152621c995960ea1b60648201526084016102b6565b5f82826040516109639291906120df565b60408051918290039091205f8181526003602052919091205490915060ff16156109db5760405162461bcd60e51b815260206004820152602360248201527f424c5331322d333831206b657920697320616c726561647920726567697374656044820152621c995960ea1b60648201526084016102b6565b6109e583836114d1565b5f60405180608001604052805f81526020015f81526020015f1515815260200185858080601f0160208091040260200160405190810160405280939291908181526020018383808284375f9201829052509390945250508054929350905080610a4d836120a0565b9091555050335f9081526002602081815260408084208054600160ff1991821681179092558184529482902086518155928601519083015584015191810180549093169115159190911790915560608201518291906003820190610ab19082612139565b5050505f91825250600360205260408120805460ff191660019081179091556004805491820181559091527f8a35acfbc15ff81a39ae7d344fd709f28e8600b4aa8c65c6b64bfe7fe36bd19b0180546001600160a01b031916331790555050565b610b226101a26020830183611d4d565b610b6e5760405162461bcd60e51b815260206004820152601c60248201527f56616c696461746f724461746120646f65736e2774206578697374730000000060448201526064016102b6565b610b7b60208201826121f4565b60015f610b8b6020850185611d4d565b6001600160a01b0316815260208101919091526040015f2061075482826122cc565b335f9081526002602052604090205460ff16610c045760405162461bcd60e51b815260206004820152601660248201527521b0b63632b9103737ba1030903b30b634b230ba37b960511b60448201526064016102b6565b335f908152600160205260409020600281015460ff1615610c675760405162461bcd60e51b815260206004820152601d60248201527f56616c696461746f7220697320616c72656164792072657369676e656400000060448201526064016102b6565b600201805460ff19166001908117909155600a805491820181555f527fc65a7bb8d6351c1cf70c95a316cc6a92839c986682d98bc35f958f4883f9d2a80180546001600160a01b03191633179055565b6001600160a01b0381165f9081526002602052604090205460ff16610d1e5760405162461bcd60e51b815260206004820152601760248201527f4d75737420766f746520666f722076616c696461746f7200000000000000000060448201526064016102b6565b335f908152600560205260409020546001600160a01b031615610d735760405162461bcd60e51b815260206004820152600d60248201526c105b1c9958591e481d9bdd1959609a1b60448201526064016102b6565b6001600160a01b0381165f908152600160205260409020600281015460ff1615610dea5760405162461bcd60e51b815260206004820152602260248201527f4d75737420766f746520666f7220756e72657369676e65642076616c6964617460448201526137b960f11b60648201526084016102b6565b6040805180820182526001600160a01b03848116825233803160208085019182525f8381526005909152948520935184546001600160a01b0319169316929092178355905160019283015590830180549131929091610e4a9084906120b8565b9091555050805460019082905f90610e639084906120b8565b9091555050604080513381526001600160a01b03841660208201527fce0c7a2a940807f7dc2ce7a615c2532e915e6c0ac9a08bc4ed9d515a710a53e2910160405180910390a15050565b6009546060905f9067ffffffffffffffff811115610ecd57610ecd611f99565b604051908082528060200260200182016040528015610f0657816020015b610ef3611c8d565b815260200190600190039081610eeb5790505b5090505f5b600954811015611045575f60098281548110610f2957610f29611fad565b5f9182526020808320909101546001600160a01b03168083526001808352604093849020845180860186528381528551608081018752825481529282015483860152600282015460ff1615159583019590955260038101805493965090949384019285916060840191610f9b90611fc1565b80601f0160208091040260200160405190810160405280929190818152602001828054610fc790611fc1565b80156110125780601f10610fe957610100808354040283529160200191611012565b820191905f5260205f20905b815481529060010190602001808311610ff557829003601f168201915b50505050508152505081525084848151811061103057611030611fad565b60209081029190910101525050600101610f0b565b50919050565b611053611533565b61105b611682565b5f61106f8260ff165f6004805490506116d3565b90508060ff165f0361107f575050565b60045f8154811061109257611092611fad565b5f91825260209091200154600680546001600160a01b0319166001600160a01b03909216919091179055600160088190555b600454811015611314575f600482815481106110e2576110e2611fad565b5f918252602090912001546008546001600160a01b03909116915060ff84161115611117576111118184611764565b5061130c565b6001600160a01b038082165f818152600160208181526040808420600654909616845292839020835180850185529485528351608081018552865481529286015483830152600286015460ff1615159383019390935260038501805493946112f99490939284019291879160608401919061119190611fc1565b80601f01602080910402602001604051908101604052809291908181526020018280546111bd90611fc1565b80156112085780601f106111df57610100808354040283529160200191611208565b820191905f5260205f20905b8154815290600101906020018083116111eb57829003601f168201915b5050509190925250505090526040805180820182526006546001600160a01b031681528151608081018352855481526001860154602082810191909152600287015460ff1615159382019390935260038601805492938401928791606084019161127190611fc1565b80601f016020809104026020016040519081016040528092919081815260200182805461129d90611fc1565b80156112e85780601f106112bf576101008083540402835291602001916112e8565b820191905f5260205f20905b8154815290600101906020018083116112cb57829003601f168201915b505050505081525050815250611b40565b15611308576113088386611764565b5050505b6001016110c4565b506006546001600160a01b031661132c60095f611c72565b8160ff1667ffffffffffffffff81111561134857611348611f99565b604051908082528060200260200182016040528015611371578160200160208202803683370190505b50805161138691600991602090910190611cd6565b505f5b8260ff168110156113eb5781600982815481106113a8576113a8611fad565b5f91825260208083209190910180546001600160a01b0319166001600160a01b039485161790559382168152600790935260409092205490911690600101611389565b50505050565b6001600160a01b038082165f9081526005602052604090208054909116611416575050565b60018101546001600160a01b0383163181101561147757611441816001600160a01b0385163161208d565b82546001600160a01b03165f908152600160208190526040822001805490919061146c9084906120b8565b909155506114bc9050565b61148b6001600160a01b038416318261208d565b82546001600160a01b03165f90815260016020819052604082200180549091906114b690849061208d565b90915550505b506001600160a01b0390911631600190910155565b6030811461152f5760405162461bcd60e51b815260206004820152602560248201527f424c5331322d333831207075626c69634b6579206c656e67746820697320696e6044820152641d985b1a5960da1b60648201526084016102b6565b5050565b6004545f61154260018361208d565b90505b801561152f575f6115578260016120b8565b60408051426020820152449181019190915260608101849052608001604051602081830303815290604052805190602001205f1c6115959190612354565b90505f600483815481106115ab576115ab611fad565b5f91825260209091200154600480546001600160a01b03909216925090839081106115d8576115d8611fad565b5f91825260209091200154600480546001600160a01b03909216918590811061160357611603611fad565b905f5260205f20015f6101000a8154816001600160a01b0302191690836001600160a01b03160217905550806004838154811061164257611642611fad565b905f5260205f20015f6101000a8154816001600160a01b0302191690836001600160a01b031602179055505050808061167a90612078565b915050611545565b6006546001600160a01b03165b6001600160a01b038116156116cc576001600160a01b039081165f90815260076020526040902080546001600160a01b031981169091551661168f565b505f600855565b5f8183111561173c5760405162461bcd60e51b815260206004820152602f60248201527f4d696e696d756d2073686f756c64206265206c657373207468616e206f72206560448201526e7175616c20746f206d6178696d756d60881b60648201526084016102b6565b8284101561174b57508161175d565b8184111561175a57508061175d565b50825b9392505050565b6001600160a01b0382165f9081526001602081815260408084208151608081018352815481529381015492840192909252600282015460ff161515908301526003810180546060840191906117b890611fc1565b80601f01602080910402602001604051908101604052809291908181526020018280546117e490611fc1565b801561182f5780601f106118065761010080835404028352916020019161182f565b820191905f5260205f20905b81548152906001019060200180831161181257829003601f168201915b5050509190925250506040805180820182526006546001600160a01b03168082525f90815260016020818152918490208451608081018652815481529181015482840152600281015460ff1615159482019490945260038401805496975061195096939550918501939092909160608401916118aa90611fc1565b80601f01602080910402602001604051908101604052809291908181526020018280546118d690611fc1565b80156119215780601f106118f857610100808354040283529160200191611921565b820191905f5260205f20905b81548152906001019060200180831161190457829003601f168201915b5050505050815250508152506040518060400160405280866001600160a01b0316815260200184815250611b40565b156119635761195e83611b8c565b611ae1565b6006546001600160a01b039081165f81815260076020526040902054909116905b6001600160a01b0382166119a15761199c8186611bdd565b611ade565b6040805180820182526001600160a01b0384168082525f90815260016020818152918490208451608081018652815481529181015482840152600281015460ff16151594820194909452600384018054611aae9593850193916060840191611a0890611fc1565b80601f0160208091040260200160405190810160405280929190818152602001828054611a3490611fc1565b8015611a7f5780601f10611a5657610100808354040283529160200191611a7f565b820191905f5260205f20905b815481529060010190602001808311611a6257829003601f168201915b5050505050815250508152506040518060400160405280886001600160a01b0316815260200186815250611b40565b15611abd5761199c8186611bdd565b506001600160a01b038082165f908152600760205260409020541690611984565b50505b8160ff16600854111561075457600680546001600160a01b039081165f90815260076020526040812080546001600160a01b03198082169092558454931692168217909255600880549192611b3583612078565b919050555050505050565b5f81602001516020015183602001516020015103611b705750805182516001600160a01b03918216911611611b86565b8160200151602001518360200151602001511190505b92915050565b600680546001600160a01b038381165f8181526007602052604081208054939094166001600160a01b0319938416179093558354909116179091556008805491611bd5836120a0565b919050555050565b6001600160a01b038281165f8181526007602052604080822080548686168085529284208054919096166001600160a01b031991821617909555928252825490931690921790556008805491611c32836120a0565b91905055505050565b508054611c4790611fc1565b5f825580601f10611c56575050565b601f0160209004905f5260205f20908101906105b09190611d39565b5080545f8255905f5260205f20908101906105b09190611d39565b60405180604001604052805f6001600160a01b03168152602001611cd160405180608001604052805f81526020015f81526020015f15158152602001606081525090565b905290565b828054828255905f5260205f20908101928215611d29579160200282015b82811115611d2957825182546001600160a01b0319166001600160a01b03909116178255602090920191600190910190611cf4565b50611d35929150611d39565b5090565b5b80821115611d35575f8155600101611d3a565b5f60208284031215611d5d575f5ffd5b81356001600160a01b038116811461175d575f5ffd5b60018060a01b0381511682525f602082015160406020850152805160408501526020810151606085015260408101511515608085015260608101519050608060a085015280518060c08601525f5b81811015611dde57602081840181015160e0888401015201611dc1565b505f60e0828701015260e0601f19601f8301168601019250505092915050565b602081525f61175d6020830184611d73565b5f5f60208385031215611e21575f5ffd5b823567ffffffffffffffff811115611e37575f5ffd5b8301601f81018513611e47575f5ffd5b803567ffffffffffffffff811115611e5d575f5ffd5b8560208260051b8401011115611e71575f5ffd5b6020919091019590945092505050565b5f5f60208385031215611e92575f5ffd5b823567ffffffffffffffff811115611ea8575f5ffd5b8301601f81018513611eb8575f5ffd5b803567ffffffffffffffff811115611ece575f5ffd5b856020828401011115611e71575f5ffd5b5f60208284031215611eef575f5ffd5b813567ffffffffffffffff811115611f05575f5ffd5b82016040818503121561175d575f5ffd5b5f602082016020835280845180835260408501915060408160051b8601019250602086015f5b82811015611f6d57603f19878603018452611f58858351611d73565b94506020938401939190910190600101611f3c565b50929695505050505050565b5f60208284031215611f89575f5ffd5b813560ff8116811461175d575f5ffd5b634e487b7160e01b5f52604160045260245ffd5b634e487b7160e01b5f52603260045260245ffd5b600181811c90821680611fd557607f821691505b60208210810361104557634e487b7160e01b5f52602260045260245ffd5b5f5f835461200081611fc1565b600182168015612017576001811461202c57612059565b60ff1983168652811515820286019350612059565b865f5260205f205f5b8381101561205157815488820152600190910190602001612035565b505081860193505b509195945050505050565b634e487b7160e01b5f52601160045260245ffd5b5f8161208657612086612064565b505f190190565b81810381811115611b8657611b86612064565b5f600182016120b1576120b1612064565b5060010190565b80820180821115611b8657611b86612064565b634e487b7160e01b5f52603160045260245ffd5b818382375f9101908152919050565b601f82111561075457805f5260205f20601f840160051c810160208510156121135750805b601f840160051c820191505b81811015612132575f815560010161211f565b5050505050565b815167ffffffffffffffff81111561215357612153611f99565b612167816121618454611fc1565b846120ee565b6020601f821160018114612199575f83156121825750848201515b5f19600385901b1c1916600184901b178455612132565b5f84815260208120601f198516915b828110156121c857878501518255602094850194600190920191016121a8565b50848210156121e557868401515f19600387901b60f8161c191681555b50505050600190811b01905550565b5f8235607e19833603018112612208575f5ffd5b9190910192915050565b67ffffffffffffffff83111561222a5761222a611f99565b61223e836122388354611fc1565b836120ee565b5f601f84116001811461226f575f85156122585750838201355b5f19600387901b1c1916600186901b178355612132565b5f83815260208120601f198716915b8281101561229e578685013582556020948501946001909201910161227e565b50868210156122ba575f1960f88860031b161c19848701351681555b505060018560011b0183555050505050565b81358155602082013560018201556002810160408301358015158082146122f1575f5ffd5b60ff19835416915060ff8116821783555050506060820135601e1983360301811261231a575f5ffd5b8201803567ffffffffffffffff811115612332575f5ffd5b602082019150803603821315612346575f5ffd5b6113eb818360038601612212565b5f8261236e57634e487b7160e01b5f52601260045260245ffd5b50069056fea264697066735822122083f82e15fdf8a7f0436e3abdb817e63a40c19e2eb3e0dcb6e1408f2e050b366064736f6c634300081b0033",
		"linkReferences": {}
	},
	"methodIdentifiers": {
		"activeValidatorsCount()": "0d2bd909",
		"calculateTopValidators(uint8)": "b5cfa68c",
		"deregisterValidator()": "6a911ccf",
		"getTopValidators()": "afeea115",
		"getValidator(address)": "1904bb2e",
		"isValidatorRegistered(address)": "d04a68c7",
		"performValidatorResignations()": "0f062c64",
		"registerValidator(bytes)": "602a9eee",
		"registeredValidatorsCount()": "f1bd0b37",
		"unvote()": "3174b689",
		"updateValidator((address,(uint256,uint256,bool,bytes)))": "62525879",
		"updateVoters(address[])": "2bdf6d43",
		"vote(address)": "6dd7d8ea"
	},
	"id": 23
}