{
	"abi": [
		{
			"type": "constructor",
			"inputs": [],
			"stateMutability": "nonpayable"
		},
		{
			"type": "function",
			"name": "activeValidatorsCount",
			"inputs": [],
			"outputs": [
				{
					"name": "",
					"type": "uint256",
					"internalType": "uint256"
				}
			],
			"stateMutability": "view"
		},
		{
			"type": "function",
			"name": "calculateTopValidators",
			"inputs": [
				{
					"name": "n",
					"type": "uint8",
					"internalType": "uint8"
				}
			],
			"outputs": [],
			"stateMutability": "nonpayable"
		},
		{
			"type": "function",
			"name": "deregisterValidator",
			"inputs": [],
			"outputs": [],
			"stateMutability": "nonpayable"
		},
		{
			"type": "function",
			"name": "getTopValidators",
			"inputs": [],
			"outputs": [
				{
					"name": "",
					"type": "tuple[]",
					"internalType": "struct Validator[]",
					"components": [
						{
							"name": "addr",
							"type": "address",
							"internalType": "address"
						},
						{
							"name": "data",
							"type": "tuple",
							"internalType": "struct ValidatorData",
							"components": [
								{
									"name": "voteBalance",
									"type": "uint256",
									"internalType": "uint256"
								},
								{
									"name": "isResigned",
									"type": "bool",
									"internalType": "bool"
								},
								{
									"name": "bls12_381_public_key",
									"type": "bytes",
									"internalType": "bytes"
								}
							]
						}
					]
				}
			],
			"stateMutability": "view"
		},
		{
			"type": "function",
			"name": "getValidator",
			"inputs": [
				{
					"name": "_addr",
					"type": "address",
					"internalType": "address"
				}
			],
			"outputs": [
				{
					"name": "",
					"type": "tuple",
					"internalType": "struct Validator",
					"components": [
						{
							"name": "addr",
							"type": "address",
							"internalType": "address"
						},
						{
							"name": "data",
							"type": "tuple",
							"internalType": "struct ValidatorData",
							"components": [
								{
									"name": "voteBalance",
									"type": "uint256",
									"internalType": "uint256"
								},
								{
									"name": "isResigned",
									"type": "bool",
									"internalType": "bool"
								},
								{
									"name": "bls12_381_public_key",
									"type": "bytes",
									"internalType": "bytes"
								}
							]
						}
					]
				}
			],
			"stateMutability": "view"
		},
		{
			"type": "function",
			"name": "isValidatorRegistered",
			"inputs": [
				{
					"name": "addr",
					"type": "address",
					"internalType": "address"
				}
			],
			"outputs": [
				{
					"name": "",
					"type": "bool",
					"internalType": "bool"
				}
			],
			"stateMutability": "view"
		},
		{
			"type": "function",
			"name": "performValidatorResignations",
			"inputs": [],
			"outputs": [],
			"stateMutability": "nonpayable"
		},
		{
			"type": "function",
			"name": "registerValidator",
			"inputs": [
				{
					"name": "bls12_381_public_key",
					"type": "bytes",
					"internalType": "bytes"
				}
			],
			"outputs": [],
			"stateMutability": "nonpayable"
		},
		{
			"type": "function",
			"name": "registeredValidatorsCount",
			"inputs": [],
			"outputs": [
				{
					"name": "",
					"type": "uint256",
					"internalType": "uint256"
				}
			],
			"stateMutability": "view"
		},
		{
			"type": "function",
			"name": "updateValidator",
			"inputs": [
				{
					"name": "_validator",
					"type": "tuple",
					"internalType": "struct Validator",
					"components": [
						{
							"name": "addr",
							"type": "address",
							"internalType": "address"
						},
						{
							"name": "data",
							"type": "tuple",
							"internalType": "struct ValidatorData",
							"components": [
								{
									"name": "voteBalance",
									"type": "uint256",
									"internalType": "uint256"
								},
								{
									"name": "isResigned",
									"type": "bool",
									"internalType": "bool"
								},
								{
									"name": "bls12_381_public_key",
									"type": "bytes",
									"internalType": "bytes"
								}
							]
						}
					]
				}
			],
			"outputs": [],
			"stateMutability": "nonpayable"
		},
		{
			"type": "function",
			"name": "updateVoters",
			"inputs": [
				{
					"name": "voters",
					"type": "address[]",
					"internalType": "address[]"
				}
			],
			"outputs": [],
			"stateMutability": "nonpayable"
		},
		{
			"type": "function",
			"name": "vote",
			"inputs": [
				{
					"name": "addr",
					"type": "address",
					"internalType": "address"
				}
			],
			"outputs": [],
			"stateMutability": "nonpayable"
		},
		{
			"type": "event",
			"name": "Voted",
			"inputs": [
				{
					"name": "voter",
					"type": "address",
					"indexed": false,
					"internalType": "address"
				},
				{
					"name": "validator",
					"type": "address",
					"indexed": false,
					"internalType": "address"
				}
			],
			"anonymous": false
		}
	],
	"bytecode": {
		"object": "0x60a06040525f5f555f6008553480156015575f5ffd5b50336080526080516121426100325f395f61072d01526121425ff3fe608060405234801561000f575f5ffd5b50600436106100b1575f3560e01c80636dd7d8ea1161006e5780636dd7d8ea146101245780637c1f669a14610137578063afeea1151461014a578063b5cfa68c1461015f578063d04a68c714610172578063f1bd0b37146101ad575f5ffd5b80630d2bd909146100b55780630f062c64146100cc5780631904bb2e146100d65780632bdf6d43146100f6578063602a9eee146101095780636a911ccf1461011c575b5f5ffd5b6009545b6040519081526020015b60405180910390f35b6100d46101b4565b005b6100e96100e4366004611afa565b61058a565b6040516100c39190611ba1565b6100d4610104366004611bb3565b6106dd565b6100d4610117366004611c24565b610723565b6100d46109a4565b6100d4610132366004611afa565b610aae565b6100d4610145366004611c82565b610c1f565b610152610cba565b6040516100c39190611cb9565b6100d461016d366004611d1c565b610e4d565b61019d610180366004611afa565b6001600160a01b03165f9081526002602052604090205460ff1690565b60405190151581526020016100c3565b5f546100b9565b600a545f9067ffffffffffffffff8111156101d1576101d1611d3c565b6040519080825280602002602001820160405280156101fa578160200160208202803683370190505b5090505f5b600a548110156103c0575f600a828154811061021d5761021d611d50565b5f9182526020808320909101546001600160a01b03168083526001918290526040909220908101549192509060ff1661029d5760405162461bcd60e51b815260206004820152601960248201527f56616c696461746f72206973206e6f742072657369676e65640000000000000060448201526064015b60405180910390fd5b5f816002016040516102af9190611d96565b6040519081900390205f8054919250806102c883611e1b565b90915550506001600160a01b0383165f908152600260208181526040808420805460ff19908116909155600192839052908420848155918201805490911690559190610316908301826119ee565b50505f818152600360205260408120805460ff191690555b60045461033d90600190611e30565b8510156103b057836001600160a01b03166004828154811061036157610361611d50565b5f918252602090912001546001600160a01b03160361039e578086868151811061038d5761038d611d50565b6020026020010181815250506103b0565b806103a881611e43565b91505061032e565b5050600190920191506101ff9050565b505f5b815181101561049e575f6103d8826001611e5b565b90505b8251811015610495578281815181106103f6576103f6611d50565b602002602001015183838151811061041057610410611d50565b6020026020010151101561048d5782818151811061043057610430611d50565b602002602001015183838151811061044a5761044a611d50565b602002602001015184848151811061046457610464611d50565b6020026020010185848151811061047d5761047d611d50565b6020908102919091010191909152525b6001016103db565b506001016103c3565b505f5b815181101561057b575f8282815181106104bd576104bd611d50565b60200260200101519050600460016004805490506104db9190611e30565b815481106104eb576104eb611d50565b5f91825260209091200154600480546001600160a01b03909216918390811061051657610516611d50565b905f5260205f20015f6101000a8154816001600160a01b0302191690836001600160a01b03160217905550600480548061055257610552611e6e565b5f8281526020902081015f1990810180546001600160a01b0319169055019055506001016104a1565b50610587600a5f611a25565b50565b610592611a40565b6001600160a01b0382165f9081526002602052604090205460ff166105f95760405162461bcd60e51b815260206004820152601c60248201527f56616c696461746f724461746120646f65736e277420657869737473000000006044820152606401610294565b6040805180820182526001600160a01b0384168082525f90815260016020818152918490208451606081018652815481529181015460ff16151582840152600281018054949593860194929391929184019161065490611d64565b80601f016020809104026020016040519081016040528092919081815260200182805461068090611d64565b80156106cb5780601f106106a2576101008083540402835291602001916106cb565b820191905f5260205f20905b8154815290600101906020018083116106ae57829003601f168201915b50505091909252505050905292915050565b5f5b8181101561071e576107168383838181106106fc576106fc611d50565b90506020020160208101906107119190611afa565b6111da565b6001016106df565b505050565b6001600160a01b037f000000000000000000000000000000000000000000000000000000000000000016330361078c5760405162461bcd60e51b815260206004820152600e60248201526d24b73b30b634b21031b0b63632b960911b6044820152606401610294565b335f9081526002602052604090205460ff16156107f75760405162461bcd60e51b815260206004820152602360248201527f56616c696461746f724461746120697320616c726561647920726567697374656044820152621c995960ea1b6064820152608401610294565b5f8282604051610808929190611e82565b60408051918290039091205f8181526003602052919091205490915060ff16156108805760405162461bcd60e51b815260206004820152602360248201527f424c5331322d333831206b657920697320616c726561647920726567697374656044820152621c995960ea1b6064820152608401610294565b61088a83836112b4565b5f60405180606001604052805f81526020015f1515815260200185858080601f0160208091040260200160405190810160405280939291908181526020018383808284375f92018290525093909452505080549293509050806108ec83611e43565b9091555050335f9081526002602081815260408084208054600160ff199182168117909255818452948290208651815592860151908301805490951690151517909355918301518392918201906109439082611edc565b5050505f91825250600360205260408120805460ff191660019081179091556004805491820181559091527f8a35acfbc15ff81a39ae7d344fd709f28e8600b4aa8c65c6b64bfe7fe36bd19b0180546001600160a01b031916331790555050565b335f9081526002602052604090205460ff166109fb5760405162461bcd60e51b815260206004820152601660248201527521b0b63632b9103737ba1030903b30b634b230ba37b960511b6044820152606401610294565b335f9081526001602081905260409091209081015460ff1615610a605760405162461bcd60e51b815260206004820152601d60248201527f56616c696461746f7220697320616c72656164792072657369676e65640000006044820152606401610294565b6001908101805460ff191682179055600a805491820181555f527fc65a7bb8d6351c1cf70c95a316cc6a92839c986682d98bc35f958f4883f9d2a80180546001600160a01b03191633179055565b6001600160a01b0381165f9081526002602052604090205460ff16610b155760405162461bcd60e51b815260206004820152601760248201527f6d75737420766f746520666f722076616c696461746f720000000000000000006044820152606401610294565b335f908152600560205260409020546001600160a01b031615610b705760405162461bcd60e51b81526020600482015260136024820152721513d113ce88185b1c9958591e481d9bdd1959606a1b6044820152606401610294565b6040805180820182526001600160a01b0383811680835233803160208086019182525f83815260058252878120965187546001600160a01b0319169616959095178655905160019586015591835292905291822080549131929091610bd6908490611e5b565b9091555050604080513381526001600160a01b03831660208201527fce0c7a2a940807f7dc2ce7a615c2532e915e6c0ac9a08bc4ed9d515a710a53e2910160405180910390a150565b610c2f6101806020830183611afa565b610c7b5760405162461bcd60e51b815260206004820152601c60248201527f56616c696461746f724461746120646f65736e277420657869737473000000006044820152606401610294565b610c886020820182611f97565b60015f610c986020850185611afa565b6001600160a01b0316815260208101919091526040015f2061071e828261206f565b6009546060905f9067ffffffffffffffff811115610cda57610cda611d3c565b604051908082528060200260200182016040528015610d1357816020015b610d00611a40565b815260200190600190039081610cf85790505b5090505f5b600954811015610e47575f60098281548110610d3657610d36611d50565b5f9182526020808320909101546001600160a01b03168083526001808352604093849020845180860186528381528551606081018752825481529282015460ff161515838601526002820180549497509195909485019386929184019190610d9d90611d64565b80601f0160208091040260200160405190810160405280929190818152602001828054610dc990611d64565b8015610e145780601f10610deb57610100808354040283529160200191610e14565b820191905f5260205f20905b815481529060010190602001808311610df757829003601f168201915b505050505081525050815250848481518110610e3257610e32611d50565b60209081029190910101525050600101610d18565b50919050565b610e55611316565b610e5d611465565b5f610e718260ff165f6004805490506114b6565b90508060ff165f03610e81575050565b60045f81548110610e9457610e94611d50565b5f91825260209091200154600680546001600160a01b0319166001600160a01b03909216919091179055600160088190555b6004548110156110fd575f60048281548110610ee457610ee4611d50565b5f918252602090912001546008546001600160a01b03909116915060ff84161115610f1957610f138184611547565b506110f5565b6001600160a01b038082165f818152600160208181526040808420600654909616845292839020835180850185529485528351606081018552865481529286015460ff1615158383015260028601805491956110e2959094938501939288929184019190610f8690611d64565b80601f0160208091040260200160405190810160405280929190818152602001828054610fb290611d64565b8015610ffd5780601f10610fd457610100808354040283529160200191610ffd565b820191905f5260205f20905b815481529060010190602001808311610fe057829003601f168201915b5050509190925250505090526040805180820182526006546001600160a01b03168152815160608101835285548152600186015460ff16151560208281019190915260028701805493949185019388928401919061105a90611d64565b80601f016020809104026020016040519081016040528092919081815260200182805461108690611d64565b80156110d15780601f106110a8576101008083540402835291602001916110d1565b820191905f5260205f20905b8154815290600101906020018083116110b457829003601f168201915b5050505050815250508152506118fe565b156110f1576110f18386611547565b5050505b600101610ec6565b506006546001600160a01b031661111560095f611a25565b8160ff1667ffffffffffffffff81111561113157611131611d3c565b60405190808252806020026020018201604052801561115a578160200160208202803683370190505b50805161116f91600991602090910190611a83565b505f5b8260ff168110156111d457816009828154811061119157611191611d50565b5f91825260208083209190910180546001600160a01b0319166001600160a01b039485161790559382168152600790935260409092205490911690600101611172565b50505050565b6001600160a01b038082165f90815260056020526040902080549091166111ff575050565b60018101546001600160a01b0383163181101561125d5761122a816001600160a01b03851631611e30565b82546001600160a01b03165f9081526001602052604081208054909190611252908490611e5b565b9091555061129f9050565b6112716001600160a01b0384163182611e30565b82546001600160a01b03165f9081526001602052604081208054909190611299908490611e30565b90915550505b506001600160a01b0390911631600190910155565b603081146113125760405162461bcd60e51b815260206004820152602560248201527f424c5331322d333831207075626c69634b6579206c656e67746820697320696e6044820152641d985b1a5960da1b6064820152608401610294565b5050565b6004545f611325600183611e30565b90505b8015611312575f61133a826001611e5b565b60408051426020820152449181019190915260608101849052608001604051602081830303815290604052805190602001205f1c61137891906120ed565b90505f6004838154811061138e5761138e611d50565b5f91825260209091200154600480546001600160a01b03909216925090839081106113bb576113bb611d50565b5f91825260209091200154600480546001600160a01b0390921691859081106113e6576113e6611d50565b905f5260205f20015f6101000a8154816001600160a01b0302191690836001600160a01b03160217905550806004838154811061142557611425611d50565b905f5260205f20015f6101000a8154816001600160a01b0302191690836001600160a01b031602179055505050808061145d90611e1b565b915050611328565b6006546001600160a01b03165b6001600160a01b038116156114af576001600160a01b039081165f90815260076020526040902080546001600160a01b0319811690915516611472565b505f600855565b5f8183111561151f5760405162461bcd60e51b815260206004820152602f60248201527f4d696e696d756d2073686f756c64206265206c657373207468616e206f72206560448201526e7175616c20746f206d6178696d756d60881b6064820152608401610294565b8284101561152e575081611540565b8184111561153d575080611540565b50825b9392505050565b6001600160a01b0382165f9081526001602081815260408084208151606081018352815481529381015460ff161515928401929092526002820180549184019161159090611d64565b80601f01602080910402602001604051908101604052809291908181526020018280546115bc90611d64565b80156116075780601f106115de57610100808354040283529160200191611607565b820191905f5260205f20905b8154815290600101906020018083116115ea57829003601f168201915b5050509190925250506040805180820182526006546001600160a01b03168082525f90815260016020818152918490208451606081018652815481529181015460ff1615158284015260028101805497985061171c979496509286019491939092918401919061167690611d64565b80601f01602080910402602001604051908101604052809291908181526020018280546116a290611d64565b80156116ed5780601f106116c4576101008083540402835291602001916116ed565b820191905f5260205f20905b8154815290600101906020018083116116d057829003601f168201915b5050505050815250508152506040518060400160405280866001600160a01b03168152602001848152506118fe565b1561172f5761172a8361193f565b61189f565b6006546001600160a01b039081165f81815260076020526040902054909116905b6001600160a01b03821661176d576117688186611990565b61189c565b6040805180820182526001600160a01b0384168082525f90815260016020818152918490208451606081018652815481529181015460ff1615158284015260028101805461186c9694860194840191906117c690611d64565b80601f01602080910402602001604051908101604052809291908181526020018280546117f290611d64565b801561183d5780601f106118145761010080835404028352916020019161183d565b820191905f5260205f20905b81548152906001019060200180831161182057829003601f168201915b5050505050815250508152506040518060400160405280886001600160a01b03168152602001868152506118fe565b1561187b576117688186611990565b506001600160a01b038082165f908152600760205260409020541690611750565b50505b8160ff16600854111561071e57600680546001600160a01b039081165f90815260076020526040812080546001600160a01b031980821690925584549316921682179092556008805491926118f383611e1b565b919050555050505050565b6020808201515190830151515f91900361192a5750805182516001600160a01b03918216911611611939565b50602080820151519083015151115b92915050565b600680546001600160a01b038381165f8181526007602052604081208054939094166001600160a01b031993841617909355835490911617909155600880549161198883611e43565b919050555050565b6001600160a01b038281165f8181526007602052604080822080548686168085529284208054919096166001600160a01b0319918216179095559282528254909316909217905560088054916119e583611e43565b91905055505050565b5080546119fa90611d64565b5f825580601f10611a09575050565b601f0160209004905f5260205f20908101906105879190611ae6565b5080545f8255905f5260205f20908101906105879190611ae6565b60405180604001604052805f6001600160a01b03168152602001611a7e60405180606001604052805f81526020015f15158152602001606081525090565b905290565b828054828255905f5260205f20908101928215611ad6579160200282015b82811115611ad657825182546001600160a01b0319166001600160a01b03909116178255602090920191600190910190611aa1565b50611ae2929150611ae6565b5090565b5b80821115611ae2575f8155600101611ae7565b5f60208284031215611b0a575f5ffd5b81356001600160a01b0381168114611540575f5ffd5b60018060a01b0381511682525f60208201516040602085015280516040850152602081015115156060850152604081015190506060608085015280518060a08601525f5b81811015611b8157602081840181015160c0888401015201611b64565b505f60c0828701015260c0601f19601f8301168601019250505092915050565b602081525f6115406020830184611b20565b5f5f60208385031215611bc4575f5ffd5b823567ffffffffffffffff811115611bda575f5ffd5b8301601f81018513611bea575f5ffd5b803567ffffffffffffffff811115611c00575f5ffd5b8560208260051b8401011115611c14575f5ffd5b6020919091019590945092505050565b5f5f60208385031215611c35575f5ffd5b823567ffffffffffffffff811115611c4b575f5ffd5b8301601f81018513611c5b575f5ffd5b803567ffffffffffffffff811115611c71575f5ffd5b856020828401011115611c14575f5ffd5b5f60208284031215611c92575f5ffd5b813567ffffffffffffffff811115611ca8575f5ffd5b820160408185031215611540575f5ffd5b5f602082016020835280845180835260408501915060408160051b8601019250602086015f5b82811015611d1057603f19878603018452611cfb858351611b20565b94506020938401939190910190600101611cdf565b50929695505050505050565b5f60208284031215611d2c575f5ffd5b813560ff81168114611540575f5ffd5b634e487b7160e01b5f52604160045260245ffd5b634e487b7160e01b5f52603260045260245ffd5b600181811c90821680611d7857607f821691505b602082108103610e4757634e487b7160e01b5f52602260045260245ffd5b5f5f8354611da381611d64565b600182168015611dba5760018114611dcf57611dfc565b60ff1983168652811515820286019350611dfc565b865f5260205f205f5b83811015611df457815488820152600190910190602001611dd8565b505081860193505b509195945050505050565b634e487b7160e01b5f52601160045260245ffd5b5f81611e2957611e29611e07565b505f190190565b8181038181111561193957611939611e07565b5f60018201611e5457611e54611e07565b5060010190565b8082018082111561193957611939611e07565b634e487b7160e01b5f52603160045260245ffd5b818382375f9101908152919050565b601f82111561071e57805f5260205f20601f840160051c81016020851015611eb65750805b601f840160051c820191505b81811015611ed5575f8155600101611ec2565b5050505050565b815167ffffffffffffffff811115611ef657611ef6611d3c565b611f0a81611f048454611d64565b84611e91565b6020601f821160018114611f3c575f8315611f255750848201515b5f19600385901b1c1916600184901b178455611ed5565b5f84815260208120601f198516915b82811015611f6b5787850151825560209485019460019092019101611f4b565b5084821015611f8857868401515f19600387901b60f8161c191681555b50505050600190811b01905550565b5f8235605e19833603018112611fab575f5ffd5b9190910192915050565b67ffffffffffffffff831115611fcd57611fcd611d3c565b611fe183611fdb8354611d64565b83611e91565b5f601f841160018114612012575f8515611ffb5750838201355b5f19600387901b1c1916600186901b178355611ed5565b5f83815260208120601f198716915b828110156120415786850135825560209485019460019092019101612021565b508682101561205d575f1960f88860031b161c19848701351681555b505060018560011b0183555050505050565b8135815560018101602083013580151580821461208a575f5ffd5b60ff19835416915060ff8116821783555050506040820135601e198336030181126120b3575f5ffd5b8201803567ffffffffffffffff8111156120cb575f5ffd5b6020820191508036038213156120df575f5ffd5b6111d4818360028601611fb5565b5f8261210757634e487b7160e01b5f52601260045260245ffd5b50069056fea26469706673582212208e47e43b8cf06d166611fee9a075d6e046f76909aacf1346ca470edff6bf40c964736f6c634300081b0033",
		"linkReferences": {}
	},
	"methodIdentifiers": {
		"activeValidatorsCount()": "0d2bd909",
		"calculateTopValidators(uint8)": "b5cfa68c",
		"deregisterValidator()": "6a911ccf",
		"getTopValidators()": "afeea115",
		"getValidator(address)": "1904bb2e",
		"isValidatorRegistered(address)": "d04a68c7",
		"performValidatorResignations()": "0f062c64",
		"registerValidator(bytes)": "602a9eee",
		"registeredValidatorsCount()": "f1bd0b37",
		"updateValidator((address,(uint256,bool,bytes)))": "7c1f669a",
		"updateVoters(address[])": "2bdf6d43",
		"vote(address)": "6dd7d8ea"
	},
	"id": 23
}