{
	"abi": [
		{
			"type": "constructor",
			"inputs": [],
			"stateMutability": "nonpayable"
		},
		{
			"type": "function",
			"name": "activeValidatorsCount",
			"inputs": [],
			"outputs": [
				{
					"name": "",
					"type": "uint256",
					"internalType": "uint256"
				}
			],
			"stateMutability": "view"
		},
		{
			"type": "function",
			"name": "calculateTopValidators",
			"inputs": [
				{
					"name": "n",
					"type": "uint8",
					"internalType": "uint8"
				}
			],
			"outputs": [],
			"stateMutability": "nonpayable"
		},
		{
			"type": "function",
			"name": "getAllValidators",
			"inputs": [],
			"outputs": [
				{
					"name": "",
					"type": "tuple[]",
					"internalType": "struct Validator[]",
					"components": [
						{
							"name": "addr",
							"type": "address",
							"internalType": "address"
						},
						{
							"name": "data",
							"type": "tuple",
							"internalType": "struct ValidatorData",
							"components": [
								{
									"name": "votersCount",
									"type": "uint256",
									"internalType": "uint256"
								},
								{
									"name": "voteBalance",
									"type": "uint256",
									"internalType": "uint256"
								},
								{
									"name": "isResigned",
									"type": "bool",
									"internalType": "bool"
								},
								{
									"name": "bls12_381_public_key",
									"type": "bytes",
									"internalType": "bytes"
								}
							]
						}
					]
				}
			],
			"stateMutability": "view"
		},
		{
			"type": "function",
			"name": "getTopValidators",
			"inputs": [],
			"outputs": [
				{
					"name": "",
					"type": "tuple[]",
					"internalType": "struct Validator[]",
					"components": [
						{
							"name": "addr",
							"type": "address",
							"internalType": "address"
						},
						{
							"name": "data",
							"type": "tuple",
							"internalType": "struct ValidatorData",
							"components": [
								{
									"name": "votersCount",
									"type": "uint256",
									"internalType": "uint256"
								},
								{
									"name": "voteBalance",
									"type": "uint256",
									"internalType": "uint256"
								},
								{
									"name": "isResigned",
									"type": "bool",
									"internalType": "bool"
								},
								{
									"name": "bls12_381_public_key",
									"type": "bytes",
									"internalType": "bytes"
								}
							]
						}
					]
				}
			],
			"stateMutability": "view"
		},
		{
			"type": "function",
			"name": "getValidator",
			"inputs": [
				{
					"name": "_addr",
					"type": "address",
					"internalType": "address"
				}
			],
			"outputs": [
				{
					"name": "",
					"type": "tuple",
					"internalType": "struct Validator",
					"components": [
						{
							"name": "addr",
							"type": "address",
							"internalType": "address"
						},
						{
							"name": "data",
							"type": "tuple",
							"internalType": "struct ValidatorData",
							"components": [
								{
									"name": "votersCount",
									"type": "uint256",
									"internalType": "uint256"
								},
								{
									"name": "voteBalance",
									"type": "uint256",
									"internalType": "uint256"
								},
								{
									"name": "isResigned",
									"type": "bool",
									"internalType": "bool"
								},
								{
									"name": "bls12_381_public_key",
									"type": "bytes",
									"internalType": "bytes"
								}
							]
						}
					]
				}
			],
			"stateMutability": "view"
		},
		{
			"type": "function",
			"name": "isValidatorRegistered",
			"inputs": [
				{
					"name": "addr",
					"type": "address",
					"internalType": "address"
				}
			],
			"outputs": [
				{
					"name": "",
					"type": "bool",
					"internalType": "bool"
				}
			],
			"stateMutability": "view"
		},
		{
			"type": "function",
			"name": "registerValidator",
			"inputs": [
				{
					"name": "bls12_381_public_key",
					"type": "bytes",
					"internalType": "bytes"
				}
			],
			"outputs": [],
			"stateMutability": "nonpayable"
		},
		{
			"type": "function",
			"name": "registeredValidatorsCount",
			"inputs": [],
			"outputs": [
				{
					"name": "",
					"type": "uint256",
					"internalType": "uint256"
				}
			],
			"stateMutability": "view"
		},
		{
			"type": "function",
			"name": "resignValidator",
			"inputs": [],
			"outputs": [],
			"stateMutability": "nonpayable"
		},
		{
			"type": "function",
			"name": "resignedValidatorsCount",
			"inputs": [],
			"outputs": [
				{
					"name": "",
					"type": "uint256",
					"internalType": "uint256"
				}
			],
			"stateMutability": "view"
		},
		{
			"type": "function",
			"name": "unvote",
			"inputs": [],
			"outputs": [],
			"stateMutability": "nonpayable"
		},
		{
			"type": "function",
			"name": "updateValidator",
			"inputs": [
				{
					"name": "_validator",
					"type": "tuple",
					"internalType": "struct Validator",
					"components": [
						{
							"name": "addr",
							"type": "address",
							"internalType": "address"
						},
						{
							"name": "data",
							"type": "tuple",
							"internalType": "struct ValidatorData",
							"components": [
								{
									"name": "votersCount",
									"type": "uint256",
									"internalType": "uint256"
								},
								{
									"name": "voteBalance",
									"type": "uint256",
									"internalType": "uint256"
								},
								{
									"name": "isResigned",
									"type": "bool",
									"internalType": "bool"
								},
								{
									"name": "bls12_381_public_key",
									"type": "bytes",
									"internalType": "bytes"
								}
							]
						}
					]
				}
			],
			"outputs": [],
			"stateMutability": "nonpayable"
		},
		{
			"type": "function",
			"name": "updateVoters",
			"inputs": [
				{
					"name": "voters",
					"type": "address[]",
					"internalType": "address[]"
				}
			],
			"outputs": [],
			"stateMutability": "nonpayable"
		},
		{
			"type": "function",
			"name": "vote",
			"inputs": [
				{
					"name": "addr",
					"type": "address",
					"internalType": "address"
				}
			],
			"outputs": [],
			"stateMutability": "nonpayable"
		},
		{
			"type": "event",
			"name": "Unvoted",
			"inputs": [
				{
					"name": "voter",
					"type": "address",
					"indexed": false,
					"internalType": "address"
				},
				{
					"name": "validator",
					"type": "address",
					"indexed": false,
					"internalType": "address"
				}
			],
			"anonymous": false
		},
		{
			"type": "event",
			"name": "ValidatorRegistered",
			"inputs": [
				{
					"name": "addr",
					"type": "address",
					"indexed": false,
					"internalType": "address"
				},
				{
					"name": "bls12_381_public_key",
					"type": "bytes",
					"indexed": false,
					"internalType": "bytes"
				}
			],
			"anonymous": false
		},
		{
			"type": "event",
			"name": "ValidatorResigned",
			"inputs": [
				{
					"name": "addr",
					"type": "address",
					"indexed": false,
					"internalType": "address"
				}
			],
			"anonymous": false
		},
		{
			"type": "event",
			"name": "Voted",
			"inputs": [
				{
					"name": "voter",
					"type": "address",
					"indexed": false,
					"internalType": "address"
				},
				{
					"name": "validator",
					"type": "address",
					"indexed": false,
					"internalType": "address"
				}
			],
			"anonymous": false
		}
	],
	"bytecode": {
		"object": "0x60a06040525f5f555f6001555f6009553480156019575f5ffd5b50336080526080516121976100365f395f6104d001526121975ff3fe608060405234801561000f575f5ffd5b50600436106100e5575f3560e01c80636dd7d8ea11610088578063b85f5da211610063578063b85f5da2146101a6578063d04a68c7146101ae578063f1bd0b37146101e9578063f3513a37146101f0575f5ffd5b80636dd7d8ea1461016b578063afeea1151461017e578063b5cfa68c14610193575f5ffd5b80632bdf6d43116100c35780632bdf6d43146101285780633174b6891461013d578063602a9eee146101455780636252587914610158575f5ffd5b80630777cbef146100e95780630d2bd909146101005780631904bb2e14610108575b5f5ffd5b6001545b6040519081526020015b60405180910390f35b600a546100ed565b61011b610116366004611b81565b6101f8565b6040516100f79190611c32565b61013b610136366004611c44565b61035d565b005b61013b6103a3565b61013b610153366004611cb5565b6104c6565b61013b610166366004611d13565b610792565b61013b610179366004611b81565b61082d565b610186610a25565b6040516100f79190611d4a565b61013b6101a1366004611dad565b610bc3565b61013b610f9d565b6101d96101bc366004611b81565b6001600160a01b03165f9081526003602052604090205460ff1690565b60405190151581526020016100f7565b5f546100ed565b6101866110be565b610200611aa3565b6001600160a01b0382165f9081526003602052604090205460ff1661026c5760405162461bcd60e51b815260206004820152601c60248201527f56616c696461746f724461746120646f65736e2774206578697374730000000060448201526064015b60405180910390fd5b6040805180820182526001600160a01b0384168082525f90815260026020818152918490208451608081018652815481526001820154818501529181015460ff161515948201949094526003840180549394928501939192916060840191906102d490611dcd565b80601f016020809104026020016040519081016040528092919081815260200182805461030090611dcd565b801561034b5780601f106103225761010080835404028352916020019161034b565b820191905f5260205f20905b81548152906001019060200180831161032e57829003601f168201915b50505091909252505050905292915050565b5f5b8181101561039e5761039683838381811061037c5761037c611dff565b90506020020160208101906103919190611b81565b611256565b60010161035f565b505050565b335f90815260066020526040902080546001600160a01b03166103fa5760405162461bcd60e51b815260206004820152600f60248201526e1513d113ce881b9bdd081d9bdd1959608a1b6044820152606401610263565b8054604080513381526001600160a01b0390921660208301527f6572af8bf9a0a86efb88dcc30011626a15c9c4603503aa4466a3f87a1867deef910160405180910390a160018082015482546001600160a01b03165f908152600260205260408120909201805491929091610470908490611e27565b909155505080546001600160a01b03165f90815260026020526040812080546001929061049e908490611e27565b9091555050335f90815260066020526040812080546001600160a01b03191681556001015550565b6001600160a01b037f000000000000000000000000000000000000000000000000000000000000000016330361052f5760405162461bcd60e51b815260206004820152600e60248201526d24b73b30b634b21031b0b63632b960911b6044820152606401610263565b335f9081526003602052604090205460ff161561058e5760405162461bcd60e51b815260206004820152601f60248201527f56616c696461746f7220697320616c72656164792072656769737465726564006044820152606401610263565b5f828260405161059f929190611e3a565b60408051918290039091205f8181526004602052919091205490915060ff16156106175760405162461bcd60e51b815260206004820152602360248201527f424c5331322d333831206b657920697320616c726561647920726567697374656044820152621c995960ea1b6064820152608401610263565b6106218383611336565b5f60405180608001604052805f81526020015f81526020015f1515815260200185858080601f0160208091040260200160405190810160405280939291908181526020018383808284375f920182905250939094525050805492935090508061068983611e49565b9091555050335f9081526003602081815260408084208054600160ff1991821681179092556002808552958390208751815593870151918401919091559085015193820180549091169315159390931790925560608301518392918201906106f19082611ec0565b5050505f82815260046020526040808220805460ff191660019081179091556005805491820181559092527f036b6384b5eca791c62761152d0c79bb0604c104a5fb6f4eb0703f3154bb3db090910180546001600160a01b0319163390811790915590517f61809fa303a3a57f4d70552f533f3e0b003173d424590cd4bb22a2afe000990c916107849187908790611f7b565b60405180910390a150505050565b6107a26101bc6020830183611b81565b6107ee5760405162461bcd60e51b815260206004820152601c60248201527f56616c696461746f724461746120646f65736e277420657869737473000000006044820152606401610263565b6107fb6020820182611fba565b60025f61080b6020850185611b81565b6001600160a01b0316815260208101919091526040015f2061039e8282612092565b6001600160a01b0381165f9081526003602052604090205460ff166108945760405162461bcd60e51b815260206004820152601760248201527f4d75737420766f746520666f722076616c696461746f720000000000000000006044820152606401610263565b335f908152600660205260409020546001600160a01b0316156108e95760405162461bcd60e51b815260206004820152600d60248201526c105b1c9958591e481d9bdd1959609a1b6044820152606401610263565b6001600160a01b0381165f9081526002602081905260409091209081015460ff16156109625760405162461bcd60e51b815260206004820152602260248201527f4d75737420766f746520666f7220756e72657369676e65642076616c6964617460448201526137b960f11b6064820152608401610263565b6040805180820182526001600160a01b03848116825233803160208085019182525f8381526006909152948520935184546001600160a01b03191693169290921783559051600192830155908301805491319290916109c290849061211a565b9091555050805460019082905f906109db90849061211a565b9091555050604080513381526001600160a01b03841660208201527fce0c7a2a940807f7dc2ce7a615c2532e915e6c0ac9a08bc4ed9d515a710a53e2910160405180910390a15050565b600a546060905f9067ffffffffffffffff811115610a4557610a45611e61565b604051908082528060200260200182016040528015610a7e57816020015b610a6b611aa3565b815260200190600190039081610a635790505b5090505f5b600a54811015610bbd575f600a8281548110610aa157610aa1611dff565b5f9182526020808320909101546001600160a01b03168083526002808352604093849020845180860186528381528551608081018752825481526001830154818701529282015460ff1615159583019590955260038101805493965090949384019285916060840191610b1390611dcd565b80601f0160208091040260200160405190810160405280929190818152602001828054610b3f90611dcd565b8015610b8a5780601f10610b6157610100808354040283529160200191610b8a565b820191905f5260205f20905b815481529060010190602001808311610b6d57829003601f168201915b505050505081525050815250848481518110610ba857610ba8611dff565b60209081029190910101525050600101610a83565b50919050565b610bcb611398565b610bd36114e7565b600780546001600160a01b03191690556001545f80549091610c059160ff8516918491610c009190611e27565b611538565b90508060ff165f03610c15575050565b5f5b600554811015610ec0575f60058281548110610c3557610c35611dff565b5f9182526020808320909101546001600160a01b03168083526002918290526040909220908101549192509060ff1615610c70575050610eb8565b6007546001600160a01b0316610cab5750600780546001600160a01b0319166001600160a01b03929092169190911790556001600955610eb8565b8360ff166009541015610cc957610cc282856115c9565b5050610eb8565b6007546001600160a01b039081165f908152600260208181526040928390208351808501855294871685528351608081018552865481526001870154818401529286015460ff161515938301939093526003850180549394610ea594909392840192918791606084019190610d3d90611dcd565b80601f0160208091040260200160405190810160405280929190818152602001828054610d6990611dcd565b8015610db45780601f10610d8b57610100808354040283529160200191610db4565b820191905f5260205f20905b815481529060010190602001808311610d9757829003601f168201915b5050509190925250505090526040805180820182526007546001600160a01b031681528151608081018352855481526001860154602082810191909152600287015460ff16151593820193909352600386018054929384019287916060840191610e1d90611dcd565b80601f0160208091040260200160405190810160405280929190818152602001828054610e4990611dcd565b8015610e945780601f10610e6b57610100808354040283529160200191610e94565b820191905f5260205f20905b815481529060010190602001808311610e7757829003601f168201915b5050505050815250508152506119a8565b15610eb457610eb483866115c9565b5050505b600101610c17565b506007546001600160a01b0316610ed8600a5f611aec565b8160ff1667ffffffffffffffff811115610ef457610ef4611e61565b604051908082528060200260200182016040528015610f1d578160200160208202803683370190505b508051610f3291600a91602090910190611b0a565b505f5b8260ff16811015610f975781600a8281548110610f5457610f54611dff565b5f91825260208083209190910180546001600160a01b0319166001600160a01b039485161790559382168152600890935260409092205490911690600101610f35565b50505050565b335f9081526003602052604090205460ff16610ffb5760405162461bcd60e51b815260206004820152601960248201527f43616c6c6572206973206e6f7420612076616c696461746f72000000000000006044820152606401610263565b335f9081526002602081905260409091209081015460ff16156110605760405162461bcd60e51b815260206004820152601d60248201527f56616c696461746f7220697320616c72656164792072657369676e65640000006044820152606401610263565b60028101805460ff19166001908117909155805481905f9061108390839061211a565b90915550506040513381527f24250fc1ec78a1405ddd4cc8b75964858af228d05faa8d4bc1302966d8a541179060200160405180910390a150565b6005546060905f9067ffffffffffffffff8111156110de576110de611e61565b60405190808252806020026020018201604052801561111757816020015b611104611aa3565b8152602001906001900390816110fc5790505b5090505f5b600554811015610bbd575f6005828154811061113a5761113a611dff565b5f9182526020808320909101546001600160a01b03168083526002808352604093849020845180860186528381528551608081018752825481526001830154818701529282015460ff16151595830195909552600381018054939650909493840192859160608401916111ac90611dcd565b80601f01602080910402602001604051908101604052809291908181526020018280546111d890611dcd565b80156112235780601f106111fa57610100808354040283529160200191611223565b820191905f5260205f20905b81548152906001019060200180831161120657829003601f168201915b50505050508152505081525084848151811061124157611241611dff565b6020908102919091010152505060010161111c565b6001600160a01b038082165f908152600660205260409020805490911661127b575050565b60018101546001600160a01b038316318110156112dc576112a6816001600160a01b03851631611e27565b82546001600160a01b03165f90815260026020526040812060010180549091906112d190849061211a565b909155506113219050565b6112f06001600160a01b0384163182611e27565b82546001600160a01b03165f908152600260205260408120600101805490919061131b908490611e27565b90915550505b506001600160a01b0390911631600190910155565b603081146113945760405162461bcd60e51b815260206004820152602560248201527f424c5331322d333831207075626c69634b6579206c656e67746820697320696e6044820152641d985b1a5960da1b6064820152608401610263565b5050565b6005545f6113a7600183611e27565b90505b8015611394575f6113bc82600161211a565b60408051426020820152449181019190915260608101849052608001604051602081830303815290604052805190602001205f1c6113fa919061212d565b90505f6005838154811061141057611410611dff565b5f91825260209091200154600580546001600160a01b039092169250908390811061143d5761143d611dff565b5f91825260209091200154600580546001600160a01b03909216918590811061146857611468611dff565b905f5260205f20015f6101000a8154816001600160a01b0302191690836001600160a01b0316021790555080600583815481106114a7576114a7611dff565b905f5260205f20015f6101000a8154816001600160a01b0302191690836001600160a01b03160217905550505080806114df9061214c565b9150506113aa565b6007546001600160a01b03165b6001600160a01b03811615611531576001600160a01b039081165f90815260086020526040902080546001600160a01b03198116909155166114f4565b505f600955565b5f818311156115a15760405162461bcd60e51b815260206004820152602f60248201527f4d696e696d756d2073686f756c64206265206c657373207468616e206f72206560448201526e7175616c20746f206d6178696d756d60881b6064820152608401610263565b828410156115b05750816115c2565b818411156115bf5750806115c2565b50825b9392505050565b6001600160a01b0382165f9081526002602081815260408084208151608081018352815481526001820154938101939093529283015460ff1615159082015260038201805491929160608401919061162090611dcd565b80601f016020809104026020016040519081016040528092919081815260200182805461164c90611dcd565b80156116975780601f1061166e57610100808354040283529160200191611697565b820191905f5260205f20905b81548152906001019060200180831161167a57829003601f168201915b5050509190925250506040805180820182526007546001600160a01b03168082525f90815260026020818152918490208451608081018652815481526001820154818501529181015460ff161515948201949094526003840180549697506117b8969395509185019390929091606084019161171290611dcd565b80601f016020809104026020016040519081016040528092919081815260200182805461173e90611dcd565b80156117895780601f1061176057610100808354040283529160200191611789565b820191905f5260205f20905b81548152906001019060200180831161176c57829003601f168201915b5050505050815250508152506040518060400160405280866001600160a01b03168152602001848152506119a8565b156117cb576117c6836119f4565b611949565b6007546001600160a01b039081165f81815260086020526040902054909116905b6001600160a01b038216611809576118048186611a45565b611946565b6040805180820182526001600160a01b0384168082525f90815260026020818152918490208451608081018652815481526001820154818501529181015460ff16151594820194909452600384018054611916959385019391606084019161187090611dcd565b80601f016020809104026020016040519081016040528092919081815260200182805461189c90611dcd565b80156118e75780601f106118be576101008083540402835291602001916118e7565b820191905f5260205f20905b8154815290600101906020018083116118ca57829003601f168201915b5050505050815250508152506040518060400160405280886001600160a01b03168152602001868152506119a8565b15611925576118048186611a45565b506001600160a01b038082165f9081526008602052604090205416906117ec565b50505b8160ff16600954111561039e57600780546001600160a01b039081165f90815260086020526040812080546001600160a01b0319808216909255845493169216821790925560098054919261199d8361214c565b919050555050505050565b5f816020015160200151836020015160200151036119d85750805182516001600160a01b039182169116116119ee565b8160200151602001518360200151602001511190505b92915050565b600780546001600160a01b038381165f8181526008602052604081208054939094166001600160a01b0319938416179093558354909116179091556009805491611a3d83611e49565b919050555050565b6001600160a01b038281165f8181526008602052604080822080548686168085529284208054919096166001600160a01b031991821617909555928252825490931690921790556009805491611a9a83611e49565b91905055505050565b60405180604001604052805f6001600160a01b03168152602001611ae760405180608001604052805f81526020015f81526020015f15158152602001606081525090565b905290565b5080545f8255905f5260205f2090810190611b079190611b6d565b50565b828054828255905f5260205f20908101928215611b5d579160200282015b82811115611b5d57825182546001600160a01b0319166001600160a01b03909116178255602090920191600190910190611b28565b50611b69929150611b6d565b5090565b5b80821115611b69575f8155600101611b6e565b5f60208284031215611b91575f5ffd5b81356001600160a01b03811681146115c2575f5ffd5b60018060a01b0381511682525f602082015160406020850152805160408501526020810151606085015260408101511515608085015260608101519050608060a085015280518060c08601525f5b81811015611c1257602081840181015160e0888401015201611bf5565b505f60e0828701015260e0601f19601f8301168601019250505092915050565b602081525f6115c26020830184611ba7565b5f5f60208385031215611c55575f5ffd5b823567ffffffffffffffff811115611c6b575f5ffd5b8301601f81018513611c7b575f5ffd5b803567ffffffffffffffff811115611c91575f5ffd5b8560208260051b8401011115611ca5575f5ffd5b6020919091019590945092505050565b5f5f60208385031215611cc6575f5ffd5b823567ffffffffffffffff811115611cdc575f5ffd5b8301601f81018513611cec575f5ffd5b803567ffffffffffffffff811115611d02575f5ffd5b856020828401011115611ca5575f5ffd5b5f60208284031215611d23575f5ffd5b813567ffffffffffffffff811115611d39575f5ffd5b8201604081850312156115c2575f5ffd5b5f602082016020835280845180835260408501915060408160051b8601019250602086015f5b82811015611da157603f19878603018452611d8c858351611ba7565b94506020938401939190910190600101611d70565b50929695505050505050565b5f60208284031215611dbd575f5ffd5b813560ff811681146115c2575f5ffd5b600181811c90821680611de157607f821691505b602082108103610bbd57634e487b7160e01b5f52602260045260245ffd5b634e487b7160e01b5f52603260045260245ffd5b634e487b7160e01b5f52601160045260245ffd5b818103818111156119ee576119ee611e13565b818382375f9101908152919050565b5f60018201611e5a57611e5a611e13565b5060010190565b634e487b7160e01b5f52604160045260245ffd5b601f82111561039e57805f5260205f20601f840160051c81016020851015611e9a5750805b601f840160051c820191505b81811015611eb9575f8155600101611ea6565b5050505050565b815167ffffffffffffffff811115611eda57611eda611e61565b611eee81611ee88454611dcd565b84611e75565b6020601f821160018114611f20575f8315611f095750848201515b5f19600385901b1c1916600184901b178455611eb9565b5f84815260208120601f198516915b82811015611f4f5787850151825560209485019460019092019101611f2f565b5084821015611f6c57868401515f19600387901b60f8161c191681555b50505050600190811b01905550565b6001600160a01b03841681526040602082018190528101829052818360608301375f818301606090810191909152601f909201601f1916010192915050565b5f8235607e19833603018112611fce575f5ffd5b9190910192915050565b67ffffffffffffffff831115611ff057611ff0611e61565b61200483611ffe8354611dcd565b83611e75565b5f601f841160018114612035575f851561201e5750838201355b5f19600387901b1c1916600186901b178355611eb9565b5f83815260208120601f198716915b828110156120645786850135825560209485019460019092019101612044565b5086821015612080575f1960f88860031b161c19848701351681555b505060018560011b0183555050505050565b81358155602082013560018201556002810160408301358015158082146120b7575f5ffd5b60ff19835416915060ff8116821783555050506060820135601e198336030181126120e0575f5ffd5b8201803567ffffffffffffffff8111156120f8575f5ffd5b60208201915080360382131561210c575f5ffd5b610f97818360038601611fd8565b808201808211156119ee576119ee611e13565b5f8261214757634e487b7160e01b5f52601260045260245ffd5b500690565b5f8161215a5761215a611e13565b505f19019056fea26469706673582212208483eac18c17b7b489b2525c30682bde046eb73b97e4083f9685acc5f05b145b64736f6c634300081b0033",
		"linkReferences": {}
	},
	"methodIdentifiers": {
		"activeValidatorsCount()": "0d2bd909",
		"calculateTopValidators(uint8)": "b5cfa68c",
		"getAllValidators()": "f3513a37",
		"getTopValidators()": "afeea115",
		"getValidator(address)": "1904bb2e",
		"isValidatorRegistered(address)": "d04a68c7",
		"registerValidator(bytes)": "602a9eee",
		"registeredValidatorsCount()": "f1bd0b37",
		"resignValidator()": "b85f5da2",
		"resignedValidatorsCount()": "0777cbef",
		"unvote()": "3174b689",
		"updateValidator((address,(uint256,uint256,bool,bytes)))": "62525879",
		"updateVoters(address[])": "2bdf6d43",
		"vote(address)": "6dd7d8ea"
	},
	"id": 23
}