{
	"abi": [
		{
			"type": "function",
			"name": "balanceOf",
			"inputs": [
				{
					"name": "addr",
					"type": "address",
					"internalType": "address"
				}
			],
			"outputs": [
				{
					"name": "",
					"type": "uint256",
					"internalType": "uint256"
				}
			],
			"stateMutability": "view"
		},
		{
			"type": "function",
			"name": "batchSendEther",
			"inputs": [
				{
					"name": "recipients",
					"type": "address[]",
					"internalType": "address payable[]"
				},
				{
					"name": "amounts",
					"type": "uint256[]",
					"internalType": "uint256[]"
				}
			],
			"outputs": [],
			"stateMutability": "payable"
		},
		{
			"type": "function",
			"name": "sendEther",
			"inputs": [
				{
					"name": "_to",
					"type": "address",
					"internalType": "address payable"
				}
			],
			"outputs": [],
			"stateMutability": "payable"
		}
	],
	"bytecode": {
		"object": "0x6080604052348015600e575f5ffd5b5061063d8061001c5f395ff3fe608060405260043610610033575f3560e01c806348c981e21461003757806370a082311461004c578063fea542a514610085575b5f5ffd5b61004a6100453660046104dd565b610098565b005b348015610057575f5ffd5b506100736100663660046104dd565b6001600160a01b03163190565b60405190815260200160405180910390f35b61004a610093366004610547565b6101cf565b5f34116100e35760405162461bcd60e51b815260206004820152601460248201527326bab9ba1039b2b7321039b7b6b29022ba3432b960611b60448201526064015b60405180910390fd5b6001600160a01b0381166101355760405162461bcd60e51b8152602060048201526019602482015278496e76616c696420726563697069656e74206164647265737360381b60448201526064016100da565b5f816001600160a01b0316346040515f6040518083038185875af1925050503d805f811461017e576040519150601f19603f3d011682016040523d82523d5f602084013e610183565b606091505b50509050806101cb5760405162461bcd60e51b81526020600482015260146024820152732330b4b632b2103a379039b2b7321022ba3432b960611b60448201526064016100da565b5050565b8281146102285760405162461bcd60e51b815260206004820152602160248201527f4d69736d61746368656420726563697069656e747320616e6420616d6f756e746044820152607360f81b60648201526084016100da565b5f805b8281101561026157838382818110610245576102456105b3565b905060200201358261025791906105db565b915060010161022b565b50803410156102b25760405162461bcd60e51b815260206004820152601b60248201527f496e73756666696369656e742045746865722070726f7669646564000000000060448201526064016100da565b5f5b84811015610413575f8686838181106102cf576102cf6105b3565b90506020020160208101906102e491906104dd565b6001600160a01b0316036103365760405162461bcd60e51b8152602060048201526019602482015278496e76616c696420726563697069656e74206164647265737360381b60448201526064016100da565b5f868683818110610349576103496105b3565b905060200201602081019061035e91906104dd565b6001600160a01b0316858584818110610379576103796105b3565b905060200201356040515f6040518083038185875af1925050503d805f81146103bd576040519150601f19603f3d011682016040523d82523d5f602084013e6103c2565b606091505b505090508061040a5760405162461bcd60e51b81526020600482015260146024820152732330b4b632b2103a379039b2b7321022ba3432b960611b60448201526064016100da565b506001016102b4565b505f61041f82346105f4565b905080156104be576040515f90339083908381818185875af1925050503d805f8114610466576040519150601f19603f3d011682016040523d82523d5f602084013e61046b565b606091505b50509050806104bc5760405162461bcd60e51b815260206004820152601d60248201527f4661696c656420746f20726566756e642065786365737320457468657200000060448201526064016100da565b505b505050505050565b6001600160a01b03811681146104da575f5ffd5b50565b5f602082840312156104ed575f5ffd5b81356104f8816104c6565b9392505050565b5f5f83601f84011261050f575f5ffd5b50813567ffffffffffffffff811115610526575f5ffd5b6020830191508360208260051b8501011115610540575f5ffd5b9250929050565b5f5f5f5f6040858703121561055a575f5ffd5b843567ffffffffffffffff811115610570575f5ffd5b61057c878288016104ff565b909550935050602085013567ffffffffffffffff81111561059b575f5ffd5b6105a7878288016104ff565b95989497509550505050565b634e487b7160e01b5f52603260045260245ffd5b634e487b7160e01b5f52601160045260245ffd5b808201808211156105ee576105ee6105c7565b92915050565b818103818111156105ee576105ee6105c756fea26469706673582212203b9cafdde1c709c4799daf0919c14c4403630e91250d935d76a63dcc68207ceb64736f6c634300081b0033",
		"linkReferences": {}
	},
	"methodIdentifiers": {
		"balanceOf(address)": "70a08231",
		"batchSendEther(address[],uint256[])": "fea542a5",
		"sendEther(address)": "48c981e2"
	},
	"id": 24
}